{
  "abi": [
    {
      "type": "constructor",
      "inputs": [
        {
          "name": "__decimals",
          "type": "uint8",
          "internalType": "uint8"
        },
        {
          "name": "_mailbox",
          "type": "address",
          "internalType": "address"
        }
      ],
      "stateMutability": "nonpayable"
    },
    {
      "type": "function",
      "name": "PACKAGE_VERSION",
      "inputs": [],
      "outputs": [
        {
          "name": "",
          "type": "string",
          "internalType": "string"
        }
      ],
      "stateMutability": "view"
    },
    {
      "type": "function",
      "name": "allowance",
      "inputs": [
        {
          "name": "owner",
          "type": "address",
          "internalType": "address"
        },
        {
          "name": "spender",
          "type": "address",
          "internalType": "address"
        }
      ],
      "outputs": [
        {
          "name": "",
          "type": "uint256",
          "internalType": "uint256"
        }
      ],
      "stateMutability": "view"
    },
    {
      "type": "function",
      "name": "approve",
      "inputs": [
        {
          "name": "spender",
          "type": "address",
          "internalType": "address"
        },
        {
          "name": "amount",
          "type": "uint256",
          "internalType": "uint256"
        }
      ],
      "outputs": [
        {
          "name": "",
          "type": "bool",
          "internalType": "bool"
        }
      ],
      "stateMutability": "nonpayable"
    },
    {
      "type": "function",
      "name": "balanceOf",
      "inputs": [
        {
          "name": "_account",
          "type": "address",
          "internalType": "address"
        }
      ],
      "outputs": [
        {
          "name": "",
          "type": "uint256",
          "internalType": "uint256"
        }
      ],
      "stateMutability": "view"
    },
    {
      "type": "function",
      "name": "decimals",
      "inputs": [],
      "outputs": [
        {
          "name": "",
          "type": "uint8",
          "internalType": "uint8"
        }
      ],
      "stateMutability": "view"
    },
    {
      "type": "function",
      "name": "decreaseAllowance",
      "inputs": [
        {
          "name": "spender",
          "type": "address",
          "internalType": "address"
        },
        {
          "name": "subtractedValue",
          "type": "uint256",
          "internalType": "uint256"
        }
      ],
      "outputs": [
        {
          "name": "",
          "type": "bool",
          "internalType": "bool"
        }
      ],
      "stateMutability": "nonpayable"
    },
    {
      "type": "function",
      "name": "destinationGas",
      "inputs": [
        {
          "name": "",
          "type": "uint32",
          "internalType": "uint32"
        }
      ],
      "outputs": [
        {
          "name": "",
          "type": "uint256",
          "internalType": "uint256"
        }
      ],
      "stateMutability": "view"
    },
    {
      "type": "function",
      "name": "domains",
      "inputs": [],
      "outputs": [
        {
          "name": "",
          "type": "uint32[]",
          "internalType": "uint32[]"
        }
      ],
      "stateMutability": "view"
    },
    {
      "type": "function",
      "name": "enrollRemoteRouter",
      "inputs": [
        {
          "name": "_domain",
          "type": "uint32",
          "internalType": "uint32"
        },
        {
          "name": "_router",
          "type": "bytes32",
          "internalType": "bytes32"
        }
      ],
      "outputs": [],
      "stateMutability": "nonpayable"
    },
    {
      "type": "function",
      "name": "enrollRemoteRouters",
      "inputs": [
        {
          "name": "_domains",
          "type": "uint32[]",
          "internalType": "uint32[]"
        },
        {
          "name": "_addresses",
          "type": "bytes32[]",
          "internalType": "bytes32[]"
        }
      ],
      "outputs": [],
      "stateMutability": "nonpayable"
    },
    {
      "type": "function",
      "name": "handle",
      "inputs": [
        {
          "name": "_origin",
          "type": "uint32",
          "internalType": "uint32"
        },
        {
          "name": "_sender",
          "type": "bytes32",
          "internalType": "bytes32"
        },
        {
          "name": "_message",
          "type": "bytes",
          "internalType": "bytes"
        }
      ],
      "outputs": [],
      "stateMutability": "payable"
    },
    {
      "type": "function",
      "name": "hook",
      "inputs": [],
      "outputs": [
        {
          "name": "",
          "type": "address",
          "internalType": "contract IPostDispatchHook"
        }
      ],
      "stateMutability": "view"
    },
    {
      "type": "function",
      "name": "increaseAllowance",
      "inputs": [
        {
          "name": "spender",
          "type": "address",
          "internalType": "address"
        },
        {
          "name": "addedValue",
          "type": "uint256",
          "internalType": "uint256"
        }
      ],
      "outputs": [
        {
          "name": "",
          "type": "bool",
          "internalType": "bool"
        }
      ],
      "stateMutability": "nonpayable"
    },
    {
      "type": "function",
      "name": "initialize",
      "inputs": [
        {
          "name": "_totalSupply",
          "type": "uint256",
          "internalType": "uint256"
        },
        {
          "name": "_name",
          "type": "string",
          "internalType": "string"
        },
        {
          "name": "_symbol",
          "type": "string",
          "internalType": "string"
        },
        {
          "name": "_hook",
          "type": "address",
          "internalType": "address"
        },
        {
          "name": "_interchainSecurityModule",
          "type": "address",
          "internalType": "address"
        },
        {
          "name": "_owner",
          "type": "address",
          "internalType": "address"
        }
      ],
      "outputs": [],
      "stateMutability": "nonpayable"
    },
    {
      "type": "function",
      "name": "interchainSecurityModule",
      "inputs": [],
      "outputs": [
        {
          "name": "",
          "type": "address",
          "internalType": "contract IInterchainSecurityModule"
        }
      ],
      "stateMutability": "view"
    },
    {
      "type": "function",
      "name": "localDomain",
      "inputs": [],
      "outputs": [
        {
          "name": "",
          "type": "uint32",
          "internalType": "uint32"
        }
      ],
      "stateMutability": "view"
    },
    {
      "type": "function",
      "name": "mailbox",
      "inputs": [],
      "outputs": [
        {
          "name": "",
          "type": "address",
          "internalType": "contract IMailbox"
        }
      ],
      "stateMutability": "view"
    },
    {
      "type": "function",
      "name": "name",
      "inputs": [],
      "outputs": [
        {
          "name": "",
          "type": "string",
          "internalType": "string"
        }
      ],
      "stateMutability": "view"
    },
    {
      "type": "function",
      "name": "owner",
      "inputs": [],
      "outputs": [
        {
          "name": "",
          "type": "address",
          "internalType": "address"
        }
      ],
      "stateMutability": "view"
    },
    {
      "type": "function",
      "name": "quoteGasPayment",
      "inputs": [
        {
          "name": "_destinationDomain",
          "type": "uint32",
          "internalType": "uint32"
        }
      ],
      "outputs": [
        {
          "name": "",
          "type": "uint256",
          "internalType": "uint256"
        }
      ],
      "stateMutability": "view"
    },
    {
      "type": "function",
      "name": "renounceOwnership",
      "inputs": [],
      "outputs": [],
      "stateMutability": "nonpayable"
    },
    {
      "type": "function",
      "name": "routers",
      "inputs": [
        {
          "name": "_domain",
          "type": "uint32",
          "internalType": "uint32"
        }
      ],
      "outputs": [
        {
          "name": "",
          "type": "bytes32",
          "internalType": "bytes32"
        }
      ],
      "stateMutability": "view"
    },
    {
      "type": "function",
      "name": "setDestinationGas",
      "inputs": [
        {
          "name": "domain",
          "type": "uint32",
          "internalType": "uint32"
        },
        {
          "name": "gas",
          "type": "uint256",
          "internalType": "uint256"
        }
      ],
      "outputs": [],
      "stateMutability": "nonpayable"
    },
    {
      "type": "function",
      "name": "setDestinationGas",
      "inputs": [
        {
          "name": "gasConfigs",
          "type": "tuple[]",
          "internalType": "struct GasRouter.GasRouterConfig[]",
          "components": [
            {
              "name": "domain",
              "type": "uint32",
              "internalType": "uint32"
            },
            {
              "name": "gas",
              "type": "uint256",
              "internalType": "uint256"
            }
          ]
        }
      ],
      "outputs": [],
      "stateMutability": "nonpayable"
    },
    {
      "type": "function",
      "name": "setHook",
      "inputs": [
        {
          "name": "_hook",
          "type": "address",
          "internalType": "address"
        }
      ],
      "outputs": [],
      "stateMutability": "nonpayable"
    },
    {
      "type": "function",
      "name": "setInterchainSecurityModule",
      "inputs": [
        {
          "name": "_module",
          "type": "address",
          "internalType": "address"
        }
      ],
      "outputs": [],
      "stateMutability": "nonpayable"
    },
    {
      "type": "function",
      "name": "symbol",
      "inputs": [],
      "outputs": [
        {
          "name": "",
          "type": "string",
          "internalType": "string"
        }
      ],
      "stateMutability": "view"
    },
    {
      "type": "function",
      "name": "totalSupply",
      "inputs": [],
      "outputs": [
        {
          "name": "",
          "type": "uint256",
          "internalType": "uint256"
        }
      ],
      "stateMutability": "view"
    },
    {
      "type": "function",
      "name": "transfer",
      "inputs": [
        {
          "name": "to",
          "type": "address",
          "internalType": "address"
        },
        {
          "name": "amount",
          "type": "uint256",
          "internalType": "uint256"
        }
      ],
      "outputs": [
        {
          "name": "",
          "type": "bool",
          "internalType": "bool"
        }
      ],
      "stateMutability": "nonpayable"
    },
    {
      "type": "function",
      "name": "transferFrom",
      "inputs": [
        {
          "name": "from",
          "type": "address",
          "internalType": "address"
        },
        {
          "name": "to",
          "type": "address",
          "internalType": "address"
        },
        {
          "name": "amount",
          "type": "uint256",
          "internalType": "uint256"
        }
      ],
      "outputs": [
        {
          "name": "",
          "type": "bool",
          "internalType": "bool"
        }
      ],
      "stateMutability": "nonpayable"
    },
    {
      "type": "function",
      "name": "transferOwnership",
      "inputs": [
        {
          "name": "newOwner",
          "type": "address",
          "internalType": "address"
        }
      ],
      "outputs": [],
      "stateMutability": "nonpayable"
    },
    {
      "type": "function",
      "name": "transferRemote",
      "inputs": [
        {
          "name": "_destination",
          "type": "uint32",
          "internalType": "uint32"
        },
        {
          "name": "_recipient",
          "type": "bytes32",
          "internalType": "bytes32"
        },
        {
          "name": "_amountOrId",
          "type": "uint256",
          "internalType": "uint256"
        },
        {
          "name": "_hookMetadata",
          "type": "bytes",
          "internalType": "bytes"
        },
        {
          "name": "_hook",
          "type": "address",
          "internalType": "address"
        }
      ],
      "outputs": [
        {
          "name": "messageId",
          "type": "bytes32",
          "internalType": "bytes32"
        }
      ],
      "stateMutability": "payable"
    },
    {
      "type": "function",
      "name": "transferRemote",
      "inputs": [
        {
          "name": "_destination",
          "type": "uint32",
          "internalType": "uint32"
        },
        {
          "name": "_recipient",
          "type": "bytes32",
          "internalType": "bytes32"
        },
        {
          "name": "_amountOrId",
          "type": "uint256",
          "internalType": "uint256"
        }
      ],
      "outputs": [
        {
          "name": "messageId",
          "type": "bytes32",
          "internalType": "bytes32"
        }
      ],
      "stateMutability": "payable"
    },
    {
      "type": "function",
      "name": "unenrollRemoteRouter",
      "inputs": [
        {
          "name": "_domain",
          "type": "uint32",
          "internalType": "uint32"
        }
      ],
      "outputs": [],
      "stateMutability": "nonpayable"
    },
    {
      "type": "function",
      "name": "unenrollRemoteRouters",
      "inputs": [
        {
          "name": "_domains",
          "type": "uint32[]",
          "internalType": "uint32[]"
        }
      ],
      "outputs": [],
      "stateMutability": "nonpayable"
    },
    {
      "type": "event",
      "name": "Approval",
      "inputs": [
        {
          "name": "owner",
          "type": "address",
          "indexed": true,
          "internalType": "address"
        },
        {
          "name": "spender",
          "type": "address",
          "indexed": true,
          "internalType": "address"
        },
        {
          "name": "value",
          "type": "uint256",
          "indexed": false,
          "internalType": "uint256"
        }
      ],
      "anonymous": false
    },
    {
      "type": "event",
      "name": "GasSet",
      "inputs": [
        {
          "name": "domain",
          "type": "uint32",
          "indexed": false,
          "internalType": "uint32"
        },
        {
          "name": "gas",
          "type": "uint256",
          "indexed": false,
          "internalType": "uint256"
        }
      ],
      "anonymous": false
    },
    {
      "type": "event",
      "name": "HookSet",
      "inputs": [
        {
          "name": "_hook",
          "type": "address",
          "indexed": false,
          "internalType": "address"
        }
      ],
      "anonymous": false
    },
    {
      "type": "event",
      "name": "Initialized",
      "inputs": [
        {
          "name": "version",
          "type": "uint8",
          "indexed": false,
          "internalType": "uint8"
        }
      ],
      "anonymous": false
    },
    {
      "type": "event",
      "name": "IsmSet",
      "inputs": [
        {
          "name": "_ism",
          "type": "address",
          "indexed": false,
          "internalType": "address"
        }
      ],
      "anonymous": false
    },
    {
      "type": "event",
      "name": "OwnershipTransferred",
      "inputs": [
        {
          "name": "previousOwner",
          "type": "address",
          "indexed": true,
          "internalType": "address"
        },
        {
          "name": "newOwner",
          "type": "address",
          "indexed": true,
          "internalType": "address"
        }
      ],
      "anonymous": false
    },
    {
      "type": "event",
      "name": "ReceivedTransferRemote",
      "inputs": [
        {
          "name": "origin",
          "type": "uint32",
          "indexed": true,
          "internalType": "uint32"
        },
        {
          "name": "recipient",
          "type": "bytes32",
          "indexed": true,
          "internalType": "bytes32"
        },
        {
          "name": "amount",
          "type": "uint256",
          "indexed": false,
          "internalType": "uint256"
        }
      ],
      "anonymous": false
    },
    {
      "type": "event",
      "name": "SentTransferRemote",
      "inputs": [
        {
          "name": "destination",
          "type": "uint32",
          "indexed": true,
          "internalType": "uint32"
        },
        {
          "name": "recipient",
          "type": "bytes32",
          "indexed": true,
          "internalType": "bytes32"
        },
        {
          "name": "amount",
          "type": "uint256",
          "indexed": false,
          "internalType": "uint256"
        }
      ],
      "anonymous": false
    },
    {
      "type": "event",
      "name": "Transfer",
      "inputs": [
        {
          "name": "from",
          "type": "address",
          "indexed": true,
          "internalType": "address"
        },
        {
          "name": "to",
          "type": "address",
          "indexed": true,
          "internalType": "address"
        },
        {
          "name": "value",
          "type": "uint256",
          "indexed": false,
          "internalType": "uint256"
        }
      ],
      "anonymous": false
    }
  ],
  "bytecode": {
    "object": "0x60e06040523480156200001157600080fd5b50604051620036cf380380620036cf833981016040819052620000349162000181565b80808080806001600160a01b0381163b620000955760405162461bcd60e51b815260206004820152601e60248201527f4d61696c626f78436c69656e743a20696e76616c6964206d61696c626f780000604482015260640160405180910390fd5b6001600160a01b03821660808190526040805163234d8e3d60e21b81529051638d3638f4916004808201926020929091908290030181865afa158015620000e0573d6000803e3d6000fd5b505050506040513d601f19601f82011682018060405250810190620001069190620001d0565b63ffffffff1660a0526200011a336200012f565b50505060ff90931660c05250620001ff915050565b606580546001600160a01b038381166001600160a01b0319831681179093556040519116919082907f8be0079c531659141344cd1fd0a4f28419497f9722a3daafe3b4186f6b6457e090600090a35050565b600080604083850312156200019557600080fd5b825160ff81168114620001a757600080fd5b60208401519092506001600160a01b0381168114620001c557600080fd5b809150509250929050565b600060208284031215620001e357600080fd5b815163ffffffff81168114620001f857600080fd5b9392505050565b60805160a05160c05161348b620002446000396000610329015260006104f401526000818161064601528181610be301528181611f920152612332015261348b6000f3fe6080604052600436106102345760003560e01c80637f5a7c7b11610138578063b49c53a7116100b0578063e80a7c791161007f578063efae508a11610064578063efae508a14610728578063f2ed8c5314610748578063f2fde38b1461076857600080fd5b8063e80a7c79146106e8578063e9198bf91461070857600080fd5b8063b49c53a714610614578063d5438eae14610634578063dd62ed3e14610668578063de523cf3146106bb57600080fd5b806393c4484711610107578063a457c2d7116100ec578063a457c2d7146105b4578063a9059cbb146105d4578063b1bd6436146105f457600080fd5b806393c448471461055657806395d89b411461059f57600080fd5b80637f5a7c7b1461047d57806381b4e8b4146104cf5780638d3638f4146104e25780638da5cb5b1461052b57600080fd5b80633dfd3873116101cb57806356d5d4751161019a578063715018a61161017f578063715018a61461041b57806371a15b3814610430578063775313a11461045057600080fd5b806356d5d475146103e857806370a08231146103fb57600080fd5b80633dfd387314610373578063440df4f41461039357806349d462ef146103b557806351debffc146103d557600080fd5b806323b872dd1161020757806323b872dd146102d55780632ead72f6146102f5578063313ce56714610315578063395093511461035357600080fd5b806306fdde0314610239578063095ea7b3146102645780630e72cc061461029457806318160ddd146102b6575b600080fd5b34801561024557600080fd5b5061024e610788565b60405161025b9190612a84565b60405180910390f35b34801561027057600080fd5b5061028461027f366004612ac0565b61081a565b604051901515815260200161025b565b3480156102a057600080fd5b506102b46102af366004612aea565b610834565b005b3480156102c257600080fd5b506035545b60405190815260200161025b565b3480156102e157600080fd5b506102846102f0366004612b05565b610982565b34801561030157600080fd5b506102c7610310366004612b55565b6109a6565b34801561032157600080fd5b5060405160ff7f000000000000000000000000000000000000000000000000000000000000000016815260200161025b565b34801561035f57600080fd5b5061028461036e366004612ac0565b6109c5565b34801561037f57600080fd5b506102b461038e366004612aea565b610a11565b34801561039f57600080fd5b506103a8610b52565b60405161025b9190612b70565b3480156103c157600080fd5b506102b46103d0366004612bba565b610b63565b6102c76103e3366004612c18565b610b79565b6102b46103f6366004612c8f565b610bcb565b34801561040757600080fd5b506102c7610416366004612aea565b610d3f565b34801561042757600080fd5b506102b4610d6a565b34801561043c57600080fd5b506102b461044b366004612d2e565b610d7e565b34801561045c57600080fd5b506102c761046b366004612b55565b60fc6020526000908152604090205481565b34801561048957600080fd5b506097546104aa9073ffffffffffffffffffffffffffffffffffffffff1681565b60405173ffffffffffffffffffffffffffffffffffffffff909116815260200161025b565b6102c76104dd366004612d70565b610dd9565b3480156104ee57600080fd5b506105167f000000000000000000000000000000000000000000000000000000000000000081565b60405163ffffffff909116815260200161025b565b34801561053757600080fd5b5060655473ffffffffffffffffffffffffffffffffffffffff166104aa565b34801561056257600080fd5b5061024e6040518060400160405280600581526020017f352e382e3300000000000000000000000000000000000000000000000000000081525081565b3480156105ab57600080fd5b5061024e610de7565b3480156105c057600080fd5b506102846105cf366004612ac0565b610df6565b3480156105e057600080fd5b506102846105ef366004612ac0565b610ec7565b34801561060057600080fd5b506102b461060f366004612da3565b610ed5565b34801561062057600080fd5b506102b461062f366004612bba565b610f4b565b34801561064057600080fd5b506104aa7f000000000000000000000000000000000000000000000000000000000000000081565b34801561067457600080fd5b506102c7610683366004612e18565b73ffffffffffffffffffffffffffffffffffffffff918216600090815260346020908152604080832093909416825291909152205490565b3480156106c757600080fd5b506098546104aa9073ffffffffffffffffffffffffffffffffffffffff1681565b3480156106f457600080fd5b506102b4610703366004612f25565b610f5d565b34801561071457600080fd5b506102b4610723366004612fb7565b61110c565b34801561073457600080fd5b506102b4610743366004612b55565b6111eb565b34801561075457600080fd5b506102c7610763366004612b55565b6111ff565b34801561077457600080fd5b506102b4610783366004612aea565b611236565b60606036805461079790613017565b80601f01602080910402602001604051908101604052809291908181526020018280546107c390613017565b80156108105780601f106107e557610100808354040283529160200191610810565b820191906000526020600020905b8154815290600101906020018083116107f357829003601f168201915b5050505050905090565b6000336108288185856112ea565b60019150505b92915050565b8073ffffffffffffffffffffffffffffffffffffffff81163b15158061086e575073ffffffffffffffffffffffffffffffffffffffff8116155b6108ff576040517f08c379a000000000000000000000000000000000000000000000000000000000815260206004820152602760248201527f4d61696c626f78436c69656e743a20696e76616c696420636f6e74726163742060448201527f73657474696e670000000000000000000000000000000000000000000000000060648201526084015b60405180910390fd5b61090761149d565b609880547fffffffffffffffffffffffff00000000000000000000000000000000000000001673ffffffffffffffffffffffffffffffffffffffff84169081179091556040519081527fc47cbcc588c67679e52261c45cc315e56562f8d0ccaba16facb9093ff9498799906020015b60405180910390a15050565b60003361099085828561151e565b61099b8585856115ef565b506001949350505050565b6000806109bd60c963ffffffff8086169061186516565b949350505050565b33600081815260346020908152604080832073ffffffffffffffffffffffffffffffffffffffff871684529091528120549091906108289082908690610a0c908790613099565b6112ea565b8073ffffffffffffffffffffffffffffffffffffffff81163b151580610a4b575073ffffffffffffffffffffffffffffffffffffffff8116155b610ad7576040517f08c379a000000000000000000000000000000000000000000000000000000000815260206004820152602760248201527f4d61696c626f78436c69656e743a20696e76616c696420636f6e74726163742060448201527f73657474696e670000000000000000000000000000000000000000000000000060648201526084016108f6565b610adf61149d565b609780547fffffffffffffffffffffffff00000000000000000000000000000000000000001673ffffffffffffffffffffffffffffffffffffffff84169081179091556040519081527f4eab7b127c764308788622363ad3e9532de3dfba7845bd4f84c125a22544255a90602001610976565b6060610b5e60c961187e565b905090565b610b6b61149d565b610b75828261192f565b5050565b6000610bc08787873488888080601f0160208091040260200160405190810160405280939291908181526020018383808284376000920191909152508a925061197d915050565b979650505050505050565b3373ffffffffffffffffffffffffffffffffffffffff7f00000000000000000000000000000000000000000000000000000000000000001614610c90576040517f08c379a000000000000000000000000000000000000000000000000000000000815260206004820152602160248201527f4d61696c626f78436c69656e743a2073656e646572206e6f74206d61696c626f60448201527f780000000000000000000000000000000000000000000000000000000000000060648201526084016108f6565b6000610c9b856119f6565b9050838114610d2c576040517f08c379a000000000000000000000000000000000000000000000000000000000815260206004820152602560248201527f456e726f6c6c656420726f7574657220646f6573206e6f74206d61746368207360448201527f656e64657200000000000000000000000000000000000000000000000000000060648201526084016108f6565b610d3885858585611a5b565b5050505050565b73ffffffffffffffffffffffffffffffffffffffff811660009081526033602052604081205461082e565b610d7261149d565b610d7c6000611ae7565b565b610d8661149d565b8060005b81811015610dd357610dc1848483818110610da757610da76130ac565b9050602002016020810190610dbc9190612b55565b611b5e565b610dcc600182613099565b9050610d8a565b50505050565b60006109bd84848434611bb3565b60606037805461079790613017565b33600081815260346020908152604080832073ffffffffffffffffffffffffffffffffffffffff8716845290915281205490919083811015610eba576040517f08c379a000000000000000000000000000000000000000000000000000000000815260206004820152602560248201527f45524332303a2064656372656173656420616c6c6f77616e63652062656c6f7760448201527f207a65726f00000000000000000000000000000000000000000000000000000060648201526084016108f6565b61099b82868684036112ea565b6000336108288185856115ef565b610edd61149d565b60005b81811015610f4657610f34838383818110610efd57610efd6130ac565b610f139260206040909202019081019150612b55565b848484818110610f2557610f256130ac565b9050604002016020013561192f565b610f3f600182613099565b9050610ee0565b505050565b610f5361149d565b610b758282611bec565b600054610100900460ff1615808015610f7d5750600054600160ff909116105b80610f975750303b158015610f97575060005460ff166001145b611023576040517f08c379a000000000000000000000000000000000000000000000000000000000815260206004820152602e60248201527f496e697469616c697a61626c653a20636f6e747261637420697320616c72656160448201527f647920696e697469616c697a656400000000000000000000000000000000000060648201526084016108f6565b600080547fffffffffffffffffffffffffffffffffffffffffffffffffffffffffffffff00166001179055801561108157600080547fffffffffffffffffffffffffffffffffffffffffffffffffffffffffffff00ff166101001790555b61108b8686611c02565b6110953388611ca3565b6110a0848484611d98565b801561110357600080547fffffffffffffffffffffffffffffffffffffffffffffffffffffffffffff00ff169055604051600181527f7f26b83ff96e1f2b6a682f133852f6798a09c465da95921460cefb38474024989060200160405180910390a15b50505050505050565b61111461149d565b82811461117d576040517f08c379a000000000000000000000000000000000000000000000000000000000815260206004820152600760248201527f216c656e6774680000000000000000000000000000000000000000000000000060448201526064016108f6565b8260005b818110156111e3576111d186868381811061119e5761119e6130ac565b90506020020160208101906111b39190612b55565b8585848181106111c5576111c56130ac565b90506020020135611bec565b6111dc600182613099565b9050611181565b505050505050565b6111f361149d565b6111fc81611b5e565b50565b60408051602081019091526000808252609754909161082e9184919073ffffffffffffffffffffffffffffffffffffffff16611e52565b61123e61149d565b73ffffffffffffffffffffffffffffffffffffffff81166112e1576040517f08c379a000000000000000000000000000000000000000000000000000000000815260206004820152602660248201527f4f776e61626c653a206e6577206f776e657220697320746865207a65726f206160448201527f646472657373000000000000000000000000000000000000000000000000000060648201526084016108f6565b6111fc81611ae7565b73ffffffffffffffffffffffffffffffffffffffff831661138c576040517f08c379a0000000000000000000000000000000000000000000000000000000008152602060048201526024808201527f45524332303a20617070726f76652066726f6d20746865207a65726f2061646460448201527f726573730000000000000000000000000000000000000000000000000000000060648201526084016108f6565b73ffffffffffffffffffffffffffffffffffffffff821661142f576040517f08c379a000000000000000000000000000000000000000000000000000000000815260206004820152602260248201527f45524332303a20617070726f766520746f20746865207a65726f20616464726560448201527f737300000000000000000000000000000000000000000000000000000000000060648201526084016108f6565b73ffffffffffffffffffffffffffffffffffffffff83811660008181526034602090815260408083209487168084529482529182902085905590518481527f8c5be1e5ebec7d5bd14f71427d1e84f3dd0314c0f7b2291e5b200ac8c7c3b925910160405180910390a3505050565b60655473ffffffffffffffffffffffffffffffffffffffff163314610d7c576040517f08c379a000000000000000000000000000000000000000000000000000000000815260206004820181905260248201527f4f776e61626c653a2063616c6c6572206973206e6f7420746865206f776e657260448201526064016108f6565b73ffffffffffffffffffffffffffffffffffffffff8381166000908152603460209081526040808320938616835292905220547fffffffffffffffffffffffffffffffffffffffffffffffffffffffffffffffff8114610dd357818110156115e2576040517f08c379a000000000000000000000000000000000000000000000000000000000815260206004820152601d60248201527f45524332303a20696e73756666696369656e7420616c6c6f77616e636500000060448201526064016108f6565b610dd384848484036112ea565b73ffffffffffffffffffffffffffffffffffffffff8316611692576040517f08c379a000000000000000000000000000000000000000000000000000000000815260206004820152602560248201527f45524332303a207472616e736665722066726f6d20746865207a65726f20616460448201527f647265737300000000000000000000000000000000000000000000000000000060648201526084016108f6565b73ffffffffffffffffffffffffffffffffffffffff8216611735576040517f08c379a000000000000000000000000000000000000000000000000000000000815260206004820152602360248201527f45524332303a207472616e7366657220746f20746865207a65726f206164647260448201527f657373000000000000000000000000000000000000000000000000000000000060648201526084016108f6565b73ffffffffffffffffffffffffffffffffffffffff8316600090815260336020526040902054818110156117eb576040517f08c379a000000000000000000000000000000000000000000000000000000000815260206004820152602660248201527f45524332303a207472616e7366657220616d6f756e742065786365656473206260448201527f616c616e6365000000000000000000000000000000000000000000000000000060648201526084016108f6565b73ffffffffffffffffffffffffffffffffffffffff80851660008181526033602052604080822086860390559286168082529083902080548601905591517fddf252ad1be2c89b69c2b068fc378daa952ba7f163c4a11628f55a4df523b3ef906118589086815260200190565b60405180910390a3610dd3565b6000806118728484611e68565b915091505b9250929050565b6060600061188b83611ea2565b9050805167ffffffffffffffff8111156118a7576118a7612e4b565b6040519080825280602002602001820160405280156118d0578160200160208202803683370190505b50915060005b8151811015611928578181815181106118f1576118f16130ac565b602002602001015183828151811061190b5761190b6130ac565b63ffffffff909216602092830291909101909101526001016118d6565b5050919050565b63ffffffff8216600081815260fc6020908152604091829020849055815192835282018390527fc3de732a98b24a2b5c6f67e8a7fb057ffc14046b83968a2c73e4148d2fba978b9101610976565b60008061198986611f33565b90506000611998888884611f53565b90506119a78987838888611f82565b9250878963ffffffff167fd229aacb94204188fe8042965fa6b269c62dc5818b21238779ab64bdd17efeec896040516119e291815260200190565b60405180910390a350509695505050505050565b60008080611a0e60c963ffffffff8087169061186516565b915091508115611a1f579392505050565b611a2884612035565b6040517f08c379a00000000000000000000000000000000000000000000000000000000081526004016108f69190612a84565b6000611a67838361206c565b90506000611a75848461208b565b9050366000611a84868661209b565b91509150611a9c611a94856120ab565b848484612154565b838863ffffffff167fba20947a325f450d232530e5f5fce293e7963499d5309a07cee84a269f2f15a685604051611ad591815260200190565b60405180910390a35050505050505050565b6065805473ffffffffffffffffffffffffffffffffffffffff8381167fffffffffffffffffffffffff0000000000000000000000000000000000000000831681179093556040519116919082907f8be0079c531659141344cd1fd0a4f28419497f9722a3daafe3b4186f6b6457e090600090a35050565b611b7260c963ffffffff8084169061215e16565b611b7b82612035565b90610b75576040517f08c379a00000000000000000000000000000000000000000000000000000000081526004016108f69190612a84565b6000611be385858585611bc58a61216a565b60975473ffffffffffffffffffffffffffffffffffffffff1661197d565b95945050505050565b610b7560c963ffffffff80851690849061218c16565b600054610100900460ff16611c99576040517f08c379a000000000000000000000000000000000000000000000000000000000815260206004820152602b60248201527f496e697469616c697a61626c653a20636f6e7472616374206973206e6f74206960448201527f6e697469616c697a696e6700000000000000000000000000000000000000000060648201526084016108f6565b610b758282612197565b73ffffffffffffffffffffffffffffffffffffffff8216611d20576040517f08c379a000000000000000000000000000000000000000000000000000000000815260206004820152601f60248201527f45524332303a206d696e7420746f20746865207a65726f20616464726573730060448201526064016108f6565b8060356000828254611d329190613099565b909155505073ffffffffffffffffffffffffffffffffffffffff82166000818152603360209081526040808320805486019055518481527fddf252ad1be2c89b69c2b068fc378daa952ba7f163c4a11628f55a4df523b3ef910160405180910390a35050565b600054610100900460ff16611e2f576040517f08c379a000000000000000000000000000000000000000000000000000000000815260206004820152602b60248201527f496e697469616c697a61626c653a20636f6e7472616374206973206e6f74206960448201527f6e697469616c697a696e6700000000000000000000000000000000000000000060648201526084016108f6565b611e37612247565b611e4083610a11565b611e4982610834565b610f4681611ae7565b60006109bd8484611e628761216a565b856122e6565b6000818152600283016020526040812054819080611e9757611e8a85856123ba565b9250600091506118779050565b600192509050611877565b60606000611eaf836123c6565b90508067ffffffffffffffff811115611eca57611eca612e4b565b604051908082528060200260200182016040528015611ef3578160200160208202803683370190505b50915060005b8181101561192857611f0b84826123d1565b60001c838281518110611f2057611f206130ac565b6020908102919091010152600101611ef9565b6060611f3f33836123dd565b505060408051602081019091526000815290565b6060838383604051602001611f6a939291906130db565b60405160208183030381529060405290509392505050565b600080611f8e876119f6565b90507f000000000000000000000000000000000000000000000000000000000000000073ffffffffffffffffffffffffffffffffffffffff166310b83dc08789848989896040518763ffffffff1660e01b8152600401611ff2959493929190613108565b60206040518083038185885af1158015612010573d6000803e3d6000fd5b50505050506040513d601f19601f82011682018060405250810190610bc09190613168565b60606120468263ffffffff166125a3565b6040516020016120569190613181565b6040516020818303038152906040529050919050565b600061207b60208284866131c6565b612084916131f0565b9392505050565b600061207b6040602084866131c6565b36600061187283604081876131c6565b600073ffffffffffffffffffffffffffffffffffffffff821115612150576040517f08c379a0000000000000000000000000000000000000000000000000000000008152602060048201526024808201527f5479706543617374733a2062797465733332546f41646472657373206f76657260448201527f666c6f770000000000000000000000000000000000000000000000000000000060648201526084016108f6565b5090565b610dd38484611ca3565b60006120848383612661565b63ffffffff8116600090815260fc602052604090205460609061082e9061267e565b610dd383838361269c565b600054610100900460ff1661222e576040517f08c379a000000000000000000000000000000000000000000000000000000000815260206004820152602b60248201527f496e697469616c697a61626c653a20636f6e7472616374206973206e6f74206960448201527f6e697469616c697a696e6700000000000000000000000000000000000000000060648201526084016108f6565b603661223a8382613274565b506037610f468282613274565b600054610100900460ff166122de576040517f08c379a000000000000000000000000000000000000000000000000000000000815260206004820152602b60248201527f496e697469616c697a61626c653a20636f6e7472616374206973206e6f74206960448201527f6e697469616c697a696e6700000000000000000000000000000000000000000060648201526084016108f6565b610d7c6126b9565b6000806122f2866119f6565b6040517f81d2ea9500000000000000000000000000000000000000000000000000000000815290915073ffffffffffffffffffffffffffffffffffffffff7f000000000000000000000000000000000000000000000000000000000000000016906381d2ea959061236f90899085908a908a908a90600401613108565b602060405180830381865afa15801561238c573d6000803e3d6000fd5b505050506040513d601f19601f820116820180604052508101906123b09190613168565b9695505050505050565b60006120848383612759565b600061082e82612771565b6000612084838361277b565b73ffffffffffffffffffffffffffffffffffffffff8216612480576040517f08c379a000000000000000000000000000000000000000000000000000000000815260206004820152602160248201527f45524332303a206275726e2066726f6d20746865207a65726f2061646472657360448201527f730000000000000000000000000000000000000000000000000000000000000060648201526084016108f6565b73ffffffffffffffffffffffffffffffffffffffff821660009081526033602052604090205481811015612536576040517f08c379a000000000000000000000000000000000000000000000000000000000815260206004820152602260248201527f45524332303a206275726e20616d6f756e7420657863656564732062616c616e60448201527f636500000000000000000000000000000000000000000000000000000000000060648201526084016108f6565b73ffffffffffffffffffffffffffffffffffffffff831660008181526033602090815260408083208686039055603580548790039055518581529192917fddf252ad1be2c89b69c2b068fc378daa952ba7f163c4a11628f55a4df523b3ef910160405180910390a3505050565b606060006125b0836127a5565b600101905060008167ffffffffffffffff8111156125d0576125d0612e4b565b6040519080825280601f01601f1916602001820160405280156125fa576020820181803683370190505b5090508181016020015b7fffffffffffffffffffffffffffffffffffffffffffffffffffffffffffffffff017f3031323334353637383961626364656600000000000000000000000000000000600a86061a8153600a850494508461260457509392505050565b600081815260028301602052604081208190556120848383612887565b606061082e6000833360405180602001604052806000815250612893565b600082815260028401602052604081208290556109bd84846128c8565b600054610100900460ff16612750576040517f08c379a000000000000000000000000000000000000000000000000000000000815260206004820152602b60248201527f496e697469616c697a61626c653a20636f6e7472616374206973206e6f74206960448201527f6e697469616c697a696e6700000000000000000000000000000000000000000060648201526084016108f6565b610d7c33611ae7565b60008181526001830160205260408120541515612084565b600061082e825490565b6000826000018281548110612792576127926130ac565b9060005260206000200154905092915050565b6000807a184f03e93ff9f4daa797ed6e38ed64bf6a1f01000000000000000083106127ee577a184f03e93ff9f4daa797ed6e38ed64bf6a1f010000000000000000830492506040015b6d04ee2d6d415b85acef8100000000831061281a576d04ee2d6d415b85acef8100000000830492506020015b662386f26fc10000831061283857662386f26fc10000830492506010015b6305f5e1008310612850576305f5e100830492506008015b612710831061286457612710830492506004015b60648310612876576064830492506002015b600a831061082e5760010192915050565b600061208483836128d4565b60606001858585856040516020016128af95949392919061338e565b6040516020818303038152906040529050949350505050565b600061208483836129c7565b600081815260018301602052604081205480156129bd5760006128f8600183613413565b855490915060009061290c90600190613413565b905081811461297157600086600001828154811061292c5761292c6130ac565b906000526020600020015490508087600001848154811061294f5761294f6130ac565b6000918252602080832090910192909255918252600188019052604090208390555b855486908061298257612982613426565b60019003818190600052602060002001600090559055856001016000868152602001908152602001600020600090556001935050505061082e565b600091505061082e565b6000818152600183016020526040812054612a0e5750815460018181018455600084815260208082209093018490558454848252828601909352604090209190915561082e565b50600061082e565b60005b83811015612a31578181015183820152602001612a19565b50506000910152565b60008151808452612a52816020860160208601612a16565b601f017fffffffffffffffffffffffffffffffffffffffffffffffffffffffffffffffe0169290920160200192915050565b6020815260006120846020830184612a3a565b803573ffffffffffffffffffffffffffffffffffffffff81168114612abb57600080fd5b919050565b60008060408385031215612ad357600080fd5b612adc83612a97565b946020939093013593505050565b600060208284031215612afc57600080fd5b61208482612a97565b600080600060608486031215612b1a57600080fd5b612b2384612a97565b9250612b3160208501612a97565b9150604084013590509250925092565b803563ffffffff81168114612abb57600080fd5b600060208284031215612b6757600080fd5b61208482612b41565b6020808252825182820181905260009190848201906040850190845b81811015612bae57835163ffffffff1683529284019291840191600101612b8c565b50909695505050505050565b60008060408385031215612bcd57600080fd5b612adc83612b41565b60008083601f840112612be857600080fd5b50813567ffffffffffffffff811115612c0057600080fd5b60208301915083602082850101111561187757600080fd5b60008060008060008060a08789031215612c3157600080fd5b612c3a87612b41565b95506020870135945060408701359350606087013567ffffffffffffffff811115612c6457600080fd5b612c7089828a01612bd6565b9094509250612c83905060808801612a97565b90509295509295509295565b60008060008060608587031215612ca557600080fd5b612cae85612b41565b935060208501359250604085013567ffffffffffffffff811115612cd157600080fd5b612cdd87828801612bd6565b95989497509550505050565b60008083601f840112612cfb57600080fd5b50813567ffffffffffffffff811115612d1357600080fd5b6020830191508360208260051b850101111561187757600080fd5b60008060208385031215612d4157600080fd5b823567ffffffffffffffff811115612d5857600080fd5b612d6485828601612ce9565b90969095509350505050565b600080600060608486031215612d8557600080fd5b612d8e84612b41565b95602085013595506040909401359392505050565b60008060208385031215612db657600080fd5b823567ffffffffffffffff80821115612dce57600080fd5b818501915085601f830112612de257600080fd5b813581811115612df157600080fd5b8660208260061b8501011115612e0657600080fd5b60209290920196919550909350505050565b60008060408385031215612e2b57600080fd5b612e3483612a97565b9150612e4260208401612a97565b90509250929050565b7f4e487b7100000000000000000000000000000000000000000000000000000000600052604160045260246000fd5b600082601f830112612e8b57600080fd5b813567ffffffffffffffff80821115612ea657612ea6612e4b565b604051601f83017fffffffffffffffffffffffffffffffffffffffffffffffffffffffffffffffe0908116603f01168101908282118183101715612eec57612eec612e4b565b81604052838152866020858801011115612f0557600080fd5b836020870160208301376000602085830101528094505050505092915050565b60008060008060008060c08789031215612f3e57600080fd5b86359550602087013567ffffffffffffffff80821115612f5d57600080fd5b612f698a838b01612e7a565b96506040890135915080821115612f7f57600080fd5b50612f8c89828a01612e7a565b945050612f9b60608801612a97565b9250612fa960808801612a97565b9150612c8360a08801612a97565b60008060008060408587031215612fcd57600080fd5b843567ffffffffffffffff80821115612fe557600080fd5b612ff188838901612ce9565b9096509450602087013591508082111561300a57600080fd5b50612cdd87828801612ce9565b600181811c9082168061302b57607f821691505b602082108103613064577f4e487b7100000000000000000000000000000000000000000000000000000000600052602260045260246000fd5b50919050565b7f4e487b7100000000000000000000000000000000000000000000000000000000600052601160045260246000fd5b8082018082111561082e5761082e61306a565b7f4e487b7100000000000000000000000000000000000000000000000000000000600052603260045260246000fd5b838152826020820152600082516130f9816040850160208701612a16565b91909101604001949350505050565b63ffffffff8616815284602082015260a06040820152600061312d60a0830186612a3a565b828103606084015261313f8186612a3a565b91505073ffffffffffffffffffffffffffffffffffffffff831660808301529695505050505050565b60006020828403121561317a57600080fd5b5051919050565b7f4e6f20726f7574657220656e726f6c6c656420666f7220646f6d61696e3a20008152600082516131b981601f850160208701612a16565b91909101601f0192915050565b600080858511156131d657600080fd5b838611156131e357600080fd5b5050820193919092039150565b8035602083101561082e577fffffffffffffffffffffffffffffffffffffffffffffffffffffffffffffffff602084900360031b1b1692915050565b601f821115610f46576000816000526020600020601f850160051c810160208610156132555750805b601f850160051c820191505b818110156111e357828155600101613261565b815167ffffffffffffffff81111561328e5761328e612e4b565b6132a28161329c8454613017565b8461322c565b602080601f8311600181146132f557600084156132bf5750858301515b7fffffffffffffffffffffffffffffffffffffffffffffffffffffffffffffffff600386901b1c1916600185901b1785556111e3565b6000858152602081207fffffffffffffffffffffffffffffffffffffffffffffffffffffffffffffffe08616915b8281101561334257888601518255948401946001909101908401613323565b508582101561337e57878501517fffffffffffffffffffffffffffffffffffffffffffffffffffffffffffffffff600388901b60f8161c191681555b5050505050600190811b01905550565b7fffff0000000000000000000000000000000000000000000000000000000000008660f01b1681528460028201528360228201527fffffffffffffffffffffffffffffffffffffffff0000000000000000000000008360601b16604282015260008251613402816056850160208701612a16565b919091016056019695505050505050565b8181038181111561082e5761082e61306a565b7f4e487b7100000000000000000000000000000000000000000000000000000000600052603160045260246000fdfea26469706673582212206cc0f90d67891187fcdd181952ae3f56651d5fe56713e99cfec68fee8102ce1a64736f6c63430008160033",
    "linkReferences": {}
  },
  "methodIdentifiers": {
    "PACKAGE_VERSION()": "93c44847",
    "allowance(address,address)": "dd62ed3e",
    "approve(address,uint256)": "095ea7b3",
    "balanceOf(address)": "70a08231",
    "decimals()": "313ce567",
    "decreaseAllowance(address,uint256)": "a457c2d7",
    "destinationGas(uint32)": "775313a1",
    "domains()": "440df4f4",
    "enrollRemoteRouter(uint32,bytes32)": "b49c53a7",
    "enrollRemoteRouters(uint32[],bytes32[])": "e9198bf9",
    "handle(uint32,bytes32,bytes)": "56d5d475",
    "hook()": "7f5a7c7b",
    "increaseAllowance(address,uint256)": "39509351",
    "initialize(uint256,string,string,address,address,address)": "e80a7c79",
    "interchainSecurityModule()": "de523cf3",
    "localDomain()": "8d3638f4",
    "mailbox()": "d5438eae",
    "name()": "06fdde03",
    "owner()": "8da5cb5b",
    "quoteGasPayment(uint32)": "f2ed8c53",
    "renounceOwnership()": "715018a6",
    "routers(uint32)": "2ead72f6",
    "setDestinationGas((uint32,uint256)[])": "b1bd6436",
    "setDestinationGas(uint32,uint256)": "49d462ef",
    "setHook(address)": "3dfd3873",
    "setInterchainSecurityModule(address)": "0e72cc06",
    "symbol()": "95d89b41",
    "totalSupply()": "18160ddd",
    "transfer(address,uint256)": "a9059cbb",
    "transferFrom(address,address,uint256)": "23b872dd",
    "transferOwnership(address)": "f2fde38b",
    "transferRemote(uint32,bytes32,uint256)": "81b4e8b4",
    "transferRemote(uint32,bytes32,uint256,bytes,address)": "51debffc",
    "unenrollRemoteRouter(uint32)": "efae508a",
    "unenrollRemoteRouters(uint32[])": "71a15b38"
  },
  "id": 366
}