{
  "abi": [
    {
      "type": "constructor",
      "inputs": [
        {
          "name": "erc20",
          "type": "address",
          "internalType": "address"
        },
        {
          "name": "_mailbox",
          "type": "address",
          "internalType": "address"
        }
      ],
      "stateMutability": "nonpayable"
    },
    {
      "type": "function",
      "name": "PACKAGE_VERSION",
      "inputs": [],
      "outputs": [
        {
          "name": "",
          "type": "string",
          "internalType": "string"
        }
      ],
      "stateMutability": "view"
    },
    {
      "type": "function",
      "name": "balanceOf",
      "inputs": [
        {
          "name": "_account",
          "type": "address",
          "internalType": "address"
        }
      ],
      "outputs": [
        {
          "name": "",
          "type": "uint256",
          "internalType": "uint256"
        }
      ],
      "stateMutability": "view"
    },
    {
      "type": "function",
      "name": "destinationGas",
      "inputs": [
        {
          "name": "",
          "type": "uint32",
          "internalType": "uint32"
        }
      ],
      "outputs": [
        {
          "name": "",
          "type": "uint256",
          "internalType": "uint256"
        }
      ],
      "stateMutability": "view"
    },
    {
      "type": "function",
      "name": "domains",
      "inputs": [],
      "outputs": [
        {
          "name": "",
          "type": "uint32[]",
          "internalType": "uint32[]"
        }
      ],
      "stateMutability": "view"
    },
    {
      "type": "function",
      "name": "enrollRemoteRouter",
      "inputs": [
        {
          "name": "_domain",
          "type": "uint32",
          "internalType": "uint32"
        },
        {
          "name": "_router",
          "type": "bytes32",
          "internalType": "bytes32"
        }
      ],
      "outputs": [],
      "stateMutability": "nonpayable"
    },
    {
      "type": "function",
      "name": "enrollRemoteRouters",
      "inputs": [
        {
          "name": "_domains",
          "type": "uint32[]",
          "internalType": "uint32[]"
        },
        {
          "name": "_addresses",
          "type": "bytes32[]",
          "internalType": "bytes32[]"
        }
      ],
      "outputs": [],
      "stateMutability": "nonpayable"
    },
    {
      "type": "function",
      "name": "handle",
      "inputs": [
        {
          "name": "_origin",
          "type": "uint32",
          "internalType": "uint32"
        },
        {
          "name": "_sender",
          "type": "bytes32",
          "internalType": "bytes32"
        },
        {
          "name": "_message",
          "type": "bytes",
          "internalType": "bytes"
        }
      ],
      "outputs": [],
      "stateMutability": "payable"
    },
    {
      "type": "function",
      "name": "hook",
      "inputs": [],
      "outputs": [
        {
          "name": "",
          "type": "address",
          "internalType": "contract IPostDispatchHook"
        }
      ],
      "stateMutability": "view"
    },
    {
      "type": "function",
      "name": "initialize",
      "inputs": [
        {
          "name": "_hook",
          "type": "address",
          "internalType": "address"
        },
        {
          "name": "_interchainSecurityModule",
          "type": "address",
          "internalType": "address"
        },
        {
          "name": "_owner",
          "type": "address",
          "internalType": "address"
        }
      ],
      "outputs": [],
      "stateMutability": "nonpayable"
    },
    {
      "type": "function",
      "name": "interchainSecurityModule",
      "inputs": [],
      "outputs": [
        {
          "name": "",
          "type": "address",
          "internalType": "contract IInterchainSecurityModule"
        }
      ],
      "stateMutability": "view"
    },
    {
      "type": "function",
      "name": "localDomain",
      "inputs": [],
      "outputs": [
        {
          "name": "",
          "type": "uint32",
          "internalType": "uint32"
        }
      ],
      "stateMutability": "view"
    },
    {
      "type": "function",
      "name": "mailbox",
      "inputs": [],
      "outputs": [
        {
          "name": "",
          "type": "address",
          "internalType": "contract IMailbox"
        }
      ],
      "stateMutability": "view"
    },
    {
      "type": "function",
      "name": "owner",
      "inputs": [],
      "outputs": [
        {
          "name": "",
          "type": "address",
          "internalType": "address"
        }
      ],
      "stateMutability": "view"
    },
    {
      "type": "function",
      "name": "quoteGasPayment",
      "inputs": [
        {
          "name": "_destinationDomain",
          "type": "uint32",
          "internalType": "uint32"
        }
      ],
      "outputs": [
        {
          "name": "",
          "type": "uint256",
          "internalType": "uint256"
        }
      ],
      "stateMutability": "view"
    },
    {
      "type": "function",
      "name": "renounceOwnership",
      "inputs": [],
      "outputs": [],
      "stateMutability": "nonpayable"
    },
    {
      "type": "function",
      "name": "routers",
      "inputs": [
        {
          "name": "_domain",
          "type": "uint32",
          "internalType": "uint32"
        }
      ],
      "outputs": [
        {
          "name": "",
          "type": "bytes32",
          "internalType": "bytes32"
        }
      ],
      "stateMutability": "view"
    },
    {
      "type": "function",
      "name": "setDestinationGas",
      "inputs": [
        {
          "name": "domain",
          "type": "uint32",
          "internalType": "uint32"
        },
        {
          "name": "gas",
          "type": "uint256",
          "internalType": "uint256"
        }
      ],
      "outputs": [],
      "stateMutability": "nonpayable"
    },
    {
      "type": "function",
      "name": "setDestinationGas",
      "inputs": [
        {
          "name": "gasConfigs",
          "type": "tuple[]",
          "internalType": "struct GasRouter.GasRouterConfig[]",
          "components": [
            {
              "name": "domain",
              "type": "uint32",
              "internalType": "uint32"
            },
            {
              "name": "gas",
              "type": "uint256",
              "internalType": "uint256"
            }
          ]
        }
      ],
      "outputs": [],
      "stateMutability": "nonpayable"
    },
    {
      "type": "function",
      "name": "setHook",
      "inputs": [
        {
          "name": "_hook",
          "type": "address",
          "internalType": "address"
        }
      ],
      "outputs": [],
      "stateMutability": "nonpayable"
    },
    {
      "type": "function",
      "name": "setInterchainSecurityModule",
      "inputs": [
        {
          "name": "_module",
          "type": "address",
          "internalType": "address"
        }
      ],
      "outputs": [],
      "stateMutability": "nonpayable"
    },
    {
      "type": "function",
      "name": "transferOwnership",
      "inputs": [
        {
          "name": "newOwner",
          "type": "address",
          "internalType": "address"
        }
      ],
      "outputs": [],
      "stateMutability": "nonpayable"
    },
    {
      "type": "function",
      "name": "transferRemote",
      "inputs": [
        {
          "name": "_destination",
          "type": "uint32",
          "internalType": "uint32"
        },
        {
          "name": "_recipient",
          "type": "bytes32",
          "internalType": "bytes32"
        },
        {
          "name": "_amount",
          "type": "uint256",
          "internalType": "uint256"
        },
        {
          "name": "_tokenMetadata",
          "type": "bytes",
          "internalType": "bytes"
        }
      ],
      "outputs": [
        {
          "name": "messageId",
          "type": "bytes32",
          "internalType": "bytes32"
        }
      ],
      "stateMutability": "payable"
    },
    {
      "type": "function",
      "name": "transferRemote",
      "inputs": [
        {
          "name": "_destination",
          "type": "uint32",
          "internalType": "uint32"
        },
        {
          "name": "_recipient",
          "type": "bytes32",
          "internalType": "bytes32"
        },
        {
          "name": "_amountOrId",
          "type": "uint256",
          "internalType": "uint256"
        },
        {
          "name": "_hookMetadata",
          "type": "bytes",
          "internalType": "bytes"
        },
        {
          "name": "_hook",
          "type": "address",
          "internalType": "address"
        }
      ],
      "outputs": [
        {
          "name": "messageId",
          "type": "bytes32",
          "internalType": "bytes32"
        }
      ],
      "stateMutability": "payable"
    },
    {
      "type": "function",
      "name": "transferRemote",
      "inputs": [
        {
          "name": "_destination",
          "type": "uint32",
          "internalType": "uint32"
        },
        {
          "name": "_recipient",
          "type": "bytes32",
          "internalType": "bytes32"
        },
        {
          "name": "_amountOrId",
          "type": "uint256",
          "internalType": "uint256"
        }
      ],
      "outputs": [
        {
          "name": "messageId",
          "type": "bytes32",
          "internalType": "bytes32"
        }
      ],
      "stateMutability": "payable"
    },
    {
      "type": "function",
      "name": "transferRemote",
      "inputs": [
        {
          "name": "_destination",
          "type": "uint32",
          "internalType": "uint32"
        },
        {
          "name": "_recipient",
          "type": "bytes32",
          "internalType": "bytes32"
        },
        {
          "name": "_amount",
          "type": "uint256",
          "internalType": "uint256"
        },
        {
          "name": "_tokenMetadata",
          "type": "bytes",
          "internalType": "bytes"
        },
        {
          "name": "_hookMetadata",
          "type": "bytes",
          "internalType": "bytes"
        },
        {
          "name": "_hook",
          "type": "address",
          "internalType": "address"
        }
      ],
      "outputs": [
        {
          "name": "messageId",
          "type": "bytes32",
          "internalType": "bytes32"
        }
      ],
      "stateMutability": "payable"
    },
    {
      "type": "function",
      "name": "unenrollRemoteRouter",
      "inputs": [
        {
          "name": "_domain",
          "type": "uint32",
          "internalType": "uint32"
        }
      ],
      "outputs": [],
      "stateMutability": "nonpayable"
    },
    {
      "type": "function",
      "name": "unenrollRemoteRouters",
      "inputs": [
        {
          "name": "_domains",
          "type": "uint32[]",
          "internalType": "uint32[]"
        }
      ],
      "outputs": [],
      "stateMutability": "nonpayable"
    },
    {
      "type": "function",
      "name": "wrappedToken",
      "inputs": [],
      "outputs": [
        {
          "name": "",
          "type": "address",
          "internalType": "contract IERC20"
        }
      ],
      "stateMutability": "view"
    },
    {
      "type": "event",
      "name": "GasSet",
      "inputs": [
        {
          "name": "domain",
          "type": "uint32",
          "indexed": false,
          "internalType": "uint32"
        },
        {
          "name": "gas",
          "type": "uint256",
          "indexed": false,
          "internalType": "uint256"
        }
      ],
      "anonymous": false
    },
    {
      "type": "event",
      "name": "HookSet",
      "inputs": [
        {
          "name": "_hook",
          "type": "address",
          "indexed": false,
          "internalType": "address"
        }
      ],
      "anonymous": false
    },
    {
      "type": "event",
      "name": "Initialized",
      "inputs": [
        {
          "name": "version",
          "type": "uint8",
          "indexed": false,
          "internalType": "uint8"
        }
      ],
      "anonymous": false
    },
    {
      "type": "event",
      "name": "IsmSet",
      "inputs": [
        {
          "name": "_ism",
          "type": "address",
          "indexed": false,
          "internalType": "address"
        }
      ],
      "anonymous": false
    },
    {
      "type": "event",
      "name": "OwnershipTransferred",
      "inputs": [
        {
          "name": "previousOwner",
          "type": "address",
          "indexed": true,
          "internalType": "address"
        },
        {
          "name": "newOwner",
          "type": "address",
          "indexed": true,
          "internalType": "address"
        }
      ],
      "anonymous": false
    },
    {
      "type": "event",
      "name": "ReceivedTransferRemote",
      "inputs": [
        {
          "name": "origin",
          "type": "uint32",
          "indexed": true,
          "internalType": "uint32"
        },
        {
          "name": "recipient",
          "type": "bytes32",
          "indexed": true,
          "internalType": "bytes32"
        },
        {
          "name": "amount",
          "type": "uint256",
          "indexed": false,
          "internalType": "uint256"
        }
      ],
      "anonymous": false
    },
    {
      "type": "event",
      "name": "SentTransferRemote",
      "inputs": [
        {
          "name": "destination",
          "type": "uint32",
          "indexed": true,
          "internalType": "uint32"
        },
        {
          "name": "recipient",
          "type": "bytes32",
          "indexed": true,
          "internalType": "bytes32"
        },
        {
          "name": "amount",
          "type": "uint256",
          "indexed": false,
          "internalType": "uint256"
        }
      ],
      "anonymous": false
    }
  ],
  "bytecode": {
    "object": "0x60e060405234801561000f575f5ffd5b5060405161262c38038061262c83398101604081905261002e91610209565b818180808080806001600160a01b0381163b6100915760405162461bcd60e51b815260206004820152601e60248201527f4d61696c626f78436c69656e743a20696e76616c6964206d61696c626f78000060448201526064015b60405180910390fd5b6001600160a01b03821660808190526040805163234d8e3d60e21b81529051638d3638f4916004808201926020929091908290030181865afa1580156100d9573d5f5f3e3d5ffd5b505050506040513d601f19601f820116820180604052508101906100fd919061023a565b63ffffffff1660a05261010f3361019d565b50505050506101238261018e60201b60201c565b6101795760405162461bcd60e51b815260206004820152602160248201527f4879704552433230436f6c6c61746572616c3a20696e76616c696420746f6b656044820152603760f91b6064820152608401610088565b506001600160a01b031660c052506102649050565b6001600160a01b03163b151590565b603380546001600160a01b038381166001600160a01b0319831681179093556040519116919082907f8be0079c531659141344cd1fd0a4f28419497f9722a3daafe3b4186f6b6457e0905f90a35050565b80516001600160a01b0381168114610204575f5ffd5b919050565b5f5f6040838503121561021a575f5ffd5b610223836101ee565b9150610231602084016101ee565b90509250929050565b5f6020828403121561024a575f5ffd5b815163ffffffff8116811461025d575f5ffd5b9392505050565b60805160a05160c0516123746102b85f395f81816104180152818161088f0152818161119f015261145901525f61037601525f81816104bb0152818161077b0152818161121801526114e901526123745ff3fe6080604052600436106101af575f3560e01c80638d3638f4116100e7578063ca874dcd11610087578063e9198bf911610062578063e9198bf9146104fc578063efae508a1461051b578063f2ed8c531461053a578063f2fde38b14610559575f5ffd5b8063ca874dcd14610497578063d5438eae146104aa578063de523cf3146104dd575f5ffd5b8063996c6cc3116100c2578063996c6cc314610407578063b1bd64361461043a578063b49c53a714610459578063c0c53b8b14610478575f5ffd5b80638d3638f4146103655780638da5cb5b146103ad57806393c44847146103ca575f5ffd5b806356d5d4751161015257806371a15b381161012d57806371a15b38146102d1578063775313a1146102f05780637f5a7c7b1461031b57806381b4e8b414610352575f5ffd5b806356d5d4751461028b57806370a082311461029e578063715018a6146102bd575f5ffd5b80633dfd38731161018d5780633dfd387314610219578063440df4f41461023857806349d462ef1461025957806351debffc14610278575f5ffd5b80630e72cc06146101b357806322bc65b9146101d45780632ead72f6146101fa575b5f5ffd5b3480156101be575f5ffd5b506101d26101cd366004611c0d565b610578565b005b6101e76101e2366004611c76565b61061b565b6040519081526020015b60405180910390f35b348015610205575f5ffd5b506101e7610214366004611cd8565b610649565b348015610224575f5ffd5b506101d2610233366004611c0d565b610667565b348015610243575f5ffd5b5061024c6106f9565b6040516101f19190611cf1565b348015610264575f5ffd5b506101d2610273366004611d39565b61070a565b6101e7610286366004611d61565b610720565b6101d2610299366004611dd2565b610770565b3480156102a9575f5ffd5b506101e76102b8366004611c0d565b61086e565b3480156102c8575f5ffd5b506101d2610900565b3480156102dc575f5ffd5b506101d26102eb366004611e67565b610913565b3480156102fb575f5ffd5b506101e761030a366004611cd8565b60ca6020525f908152604090205481565b348015610326575f5ffd5b5060655461033a906001600160a01b031681565b6040516001600160a01b0390911681526020016101f1565b6101e7610360366004611ea5565b61096d565b348015610370575f5ffd5b506103987f000000000000000000000000000000000000000000000000000000000000000081565b60405163ffffffff90911681526020016101f1565b3480156103b8575f5ffd5b506033546001600160a01b031661033a565b3480156103d5575f5ffd5b506103fa60405180604001604052806005815260200164352e382e3360d81b81525081565b6040516101f19190611f03565b348015610412575f5ffd5b5061033a7f000000000000000000000000000000000000000000000000000000000000000081565b348015610445575f5ffd5b506101d2610454366004611f15565b61097a565b348015610464575f5ffd5b506101d2610473366004611d39565b6109ef565b348015610483575f5ffd5b506101d2610492366004611f84565b610a01565b6101e76104a5366004611fc4565b610b11565b3480156104b5575f5ffd5b5061033a7f000000000000000000000000000000000000000000000000000000000000000081565b3480156104e8575f5ffd5b5060665461033a906001600160a01b031681565b348015610507575f5ffd5b506101d2610516366004612064565b610b65565b348015610526575f5ffd5b506101d2610535366004611cd8565b610c13565b348015610545575f5ffd5b506101e7610554366004611cd8565b610c27565b348015610564575f5ffd5b506101d2610573366004611c0d565b610c50565b806001600160a01b0381163b15158061059857506001600160a01b038116155b6105bd5760405162461bcd60e51b81526004016105b4906120c2565b60405180910390fd5b6105c5610cc6565b606680546001600160a01b0319166001600160a01b0384169081179091556040519081527fc47cbcc588c67679e52261c45cc315e56562f8d0ccaba16facb9093ff9498799906020015b60405180910390a15050565b5f61063f86868634878761062e8d610d20565b6065546001600160a01b0316610d41565b9695505050505050565b5f8061065f609763ffffffff80861690610dec16565b949350505050565b806001600160a01b0381163b15158061068757506001600160a01b038116155b6106a35760405162461bcd60e51b81526004016105b4906120c2565b6106ab610cc6565b606580546001600160a01b0319166001600160a01b0384169081179091556040519081527f4eab7b127c764308788622363ad3e9532de3dfba7845bd4f84c125a22544255a9060200161060f565b60606107056097610e04565b905090565b610712610cc6565b61071c8282610eb2565b5050565b5f6107658787873488888080601f0160208091040260200160405190810160405280939291908181526020018383808284375f920191909152508a9250610eff915050565b979650505050505050565b336001600160a01b037f000000000000000000000000000000000000000000000000000000000000000016146107f25760405162461bcd60e51b815260206004820152602160248201527f4d61696c626f78436c69656e743a2073656e646572206e6f74206d61696c626f6044820152600f60fb1b60648201526084016105b4565b5f6107fc85610f76565b905083811461085b5760405162461bcd60e51b815260206004820152602560248201527f456e726f6c6c656420726f7574657220646f6573206e6f74206d61746368207360448201526432b73232b960d91b60648201526084016105b4565b61086785858585610fc0565b5050505050565b6040516370a0823160e01b81526001600160a01b0382811660048301525f917f0000000000000000000000000000000000000000000000000000000000000000909116906370a0823190602401602060405180830381865afa1580156108d6573d5f5f3e3d5ffd5b505050506040513d601f19601f820116820180604052508101906108fa9190612109565b92915050565b610908610cc6565b6109115f611049565b565b61091b610cc6565b805f5b818110156109675761095584848381811061093b5761093b612120565b90506020020160208101906109509190611cd8565b61109a565b610960600182612148565b905061091e565b50505050565b5f61065f848484346110d5565b610982610cc6565b5f5b818110156109ea576109d88383838181106109a1576109a1612120565b6109b79260206040909202019081019150611cd8565b8484848181106109c9576109c9612120565b90506040020160200135610eb2565b6109e3600182612148565b9050610984565b505050565b6109f7610cc6565b61071c8282611100565b5f54610100900460ff1615808015610a1f57505f54600160ff909116105b80610a385750303b158015610a3857505f5460ff166001145b610a9b5760405162461bcd60e51b815260206004820152602e60248201527f496e697469616c697a61626c653a20636f6e747261637420697320616c72656160448201526d191e481a5b9a5d1a585b1a5e995960921b60648201526084016105b4565b5f805460ff191660011790558015610abc575f805461ff0019166101001790555b610ac7848484611116565b8015610967575f805461ff0019169055604051600181527f7f26b83ff96e1f2b6a682f133852f6798a09c465da95921460cefb38474024989060200160405180910390a150505050565b5f610b58898989348a8a8a8a8080601f0160208091040260200160405190810160405280939291908181526020018383808284375f920191909152508c9250610d41915050565b9998505050505050505050565b610b6d610cc6565b828114610ba65760405162461bcd60e51b8152602060048201526007602482015266042d8cadccee8d60cb1b60448201526064016105b4565b825f5b81811015610c0b57610bf9868683818110610bc657610bc6612120565b9050602002016020810190610bdb9190611cd8565b858584818110610bed57610bed612120565b90506020020135611100565b610c04600182612148565b9050610ba9565b505050505050565b610c1b610cc6565b610c248161109a565b50565b60408051602081019091525f80825260655490916108fa918491906001600160a01b031661115f565b610c58610cc6565b6001600160a01b038116610cbd5760405162461bcd60e51b815260206004820152602660248201527f4f776e61626c653a206e6577206f776e657220697320746865207a65726f206160448201526564647265737360d01b60648201526084016105b4565b610c2481611049565b6033546001600160a01b031633146109115760405162461bcd60e51b815260206004820181905260248201527f4f776e61626c653a2063616c6c6572206973206e6f7420746865206f776e657260448201526064016105b4565b63ffffffff81165f90815260ca60205260409020546060906108fa90611174565b5f610d4b87611190565b505f610d8d898988888080601f0160208091040260200160405190810160405280939291908181526020018383808284375f920191909152506111da92505050565b9050610d9c8a88838787611209565b9150888a63ffffffff167fd229aacb94204188fe8042965fa6b269c62dc5818b21238779ab64bdd17efeec8a604051610dd791815260200190565b60405180910390a35098975050505050505050565b5f80610df884846112ac565b915091505b9250929050565b60605f610e10836112e4565b905080516001600160401b03811115610e2b57610e2b61215b565b604051908082528060200260200182016040528015610e54578160200160208202803683370190505b5091505f5b8151811015610eab57818181518110610e7457610e74612120565b6020026020010151838281518110610e8e57610e8e612120565b63ffffffff90921660209283029190910190910152600101610e59565b5050919050565b63ffffffff82165f81815260ca6020908152604091829020849055815192835282018390527fc3de732a98b24a2b5c6f67e8a7fb057ffc14046b83968a2c73e4148d2fba978b910161060f565b5f5f610f0a86611190565b90505f610f188888846111da565b9050610f278987838888611209565b9250878963ffffffff167fd229aacb94204188fe8042965fa6b269c62dc5818b21238779ab64bdd17efeec89604051610f6291815260200190565b60405180910390a350509695505050505050565b5f8080610f8d609763ffffffff80871690610dec16565b915091508115610f9e579392505050565b610fa784611371565b60405162461bcd60e51b81526004016105b49190611f03565b5f610fcb83836113a8565b90505f610fd884846113c6565b9050365f610fe686866113d5565b91509150610ffe610ff6856113e4565b84848461144c565b838863ffffffff167fba20947a325f450d232530e5f5fce293e7963499d5309a07cee84a269f2f15a68560405161103791815260200190565b60405180910390a35050505050505050565b603380546001600160a01b038381166001600160a01b0319831681179093556040519116919082907f8be0079c531659141344cd1fd0a4f28419497f9722a3daafe3b4186f6b6457e0905f90a35050565b6110ae609763ffffffff8084169061148016565b6110b782611371565b9061071c5760405162461bcd60e51b81526004016105b49190611f03565b5f6110f7858585856110e68a610d20565b6065546001600160a01b0316610eff565b95945050505050565b61071c609763ffffffff80851690849061148b16565b5f54610100900460ff1661113c5760405162461bcd60e51b81526004016105b49061216f565b611144611496565b61114d83610667565b61115682610578565b6109ea81611049565b5f61065f848461116e87610d20565b856114c4565b60606108fa5f833360405180602001604052805f815250611565565b60606111c76001600160a01b037f00000000000000000000000000000000000000000000000000000000000000001633308561159a565b505060408051602081019091525f815290565b60608383836040516020016111f1939291906121d1565b60405160208183030381529060405290509392505050565b5f5f61121487610f76565b90507f00000000000000000000000000000000000000000000000000000000000000006001600160a01b03166310b83dc08789848989896040518763ffffffff1660e01b815260040161126b9594939291906121e8565b60206040518083038185885af1158015611287573d5f5f3e3d5ffd5b50505050506040513d601f19601f820116820180604052508101906107659190612109565b5f8181526002830160205260408120548190806112d9576112cd8585611605565b92505f9150610dfd9050565b600192509050610dfd565b60605f6112f083611610565b9050806001600160401b0381111561130a5761130a61215b565b604051908082528060200260200182016040528015611333578160200160208202803683370190505b5091505f5b81811015610eab5761134a848261161a565b5f1c83828151811061135e5761135e612120565b6020908102919091010152600101611338565b60606113828263ffffffff16611625565b6040516020016113929190612239565b6040516020818303038152906040529050919050565b5f6113b6602082848661226a565b6113bf91612291565b9392505050565b5f6113b660406020848661226a565b365f610df8836040818761226a565b5f6001600160a01b038211156114485760405162461bcd60e51b8152602060048201526024808201527f5479706543617374733a2062797465733332546f41646472657373206f766572604482015263666c6f7760e01b60648201526084016105b4565b5090565b6109676001600160a01b037f00000000000000000000000000000000000000000000000000000000000000001685856116b4565b5f6113bf83836116e4565b610967838383611700565b5f54610100900460ff166114bc5760405162461bcd60e51b81526004016105b49061216f565b61091161171c565b5f5f6114cf86610f76565b6040516381d2ea9560e01b81529091506001600160a01b037f000000000000000000000000000000000000000000000000000000000000000016906381d2ea959061152690899085908a908a908a906004016121e8565b602060405180830381865afa158015611541573d5f5f3e3d5ffd5b505050506040513d601f19601f8201168201806040525081019061063f9190612109565b60606001858585856040516020016115819594939291906122ae565b6040516020818303038152906040529050949350505050565b6040516001600160a01b03808516602483015283166044820152606481018290526109679085906323b872dd60e01b906084015b60408051601f198184030181529190526020810180516001600160e01b03166001600160e01b03199093169290921790915261174b565b5f6113bf838361181e565b5f6108fa82611835565b5f6113bf838361183e565b60605f61163183611864565b60010190505f816001600160401b0381111561164f5761164f61215b565b6040519080825280601f01601f191660200182016040528015611679576020820181803683370190505b5090508181016020015b5f19016f181899199a1a9b1b9c1cb0b131b232b360811b600a86061a8153600a850494508461168357509392505050565b6040516001600160a01b0383166024820152604481018290526109ea90849063a9059cbb60e01b906064016115ce565b5f81815260028301602052604081208190556113bf838361193b565b5f828152600284016020526040812082905561065f8484611946565b5f54610100900460ff166117425760405162461bcd60e51b81526004016105b49061216f565b61091133611049565b5f61179f826040518060400160405280602081526020017f5361666545524332303a206c6f772d6c6576656c2063616c6c206661696c6564815250856001600160a01b03166119519092919063ffffffff16565b905080515f14806117bf5750808060200190518101906117bf91906122ed565b6109ea5760405162461bcd60e51b815260206004820152602a60248201527f5361666545524332303a204552433230206f7065726174696f6e20646964206e6044820152691bdd081cdd58d8d9595960b21b60648201526084016105b4565b5f81815260018301602052604081205415156113bf565b5f6108fa825490565b5f825f01828154811061185357611853612120565b905f5260205f200154905092915050565b5f8072184f03e93ff9f4daa797ed6e38ed64bf6a1f0160401b83106118a25772184f03e93ff9f4daa797ed6e38ed64bf6a1f0160401b830492506040015b6d04ee2d6d415b85acef810000000083106118ce576d04ee2d6d415b85acef8100000000830492506020015b662386f26fc1000083106118ec57662386f26fc10000830492506010015b6305f5e1008310611904576305f5e100830492506008015b612710831061191857612710830492506004015b6064831061192a576064830492506002015b600a83106108fa5760010192915050565b5f6113bf838361195f565b5f6113bf8383611a42565b606061065f84845f85611a8e565b5f8181526001830160205260408120548015611a39575f61198160018361230c565b85549091505f906119949060019061230c565b90508181146119f3575f865f0182815481106119b2576119b2612120565b905f5260205f200154905080875f0184815481106119d2576119d2612120565b5f918252602080832090910192909255918252600188019052604090208390555b8554869080611a0457611a0461231f565b600190038181905f5260205f20015f90559055856001015f8681526020019081526020015f205f9055600193505050506108fa565b5f9150506108fa565b5f818152600183016020526040812054611a8757508154600181810184555f8481526020808220909301849055845484825282860190935260409020919091556108fa565b505f6108fa565b606082471015611aef5760405162461bcd60e51b815260206004820152602660248201527f416464726573733a20696e73756666696369656e742062616c616e636520666f6044820152651c8818d85b1b60d21b60648201526084016105b4565b5f5f866001600160a01b03168587604051611b0a9190612333565b5f6040518083038185875af1925050503d805f8114611b44576040519150601f19603f3d011682016040523d82523d5f602084013e611b49565b606091505b50915091506107658783838760608315611bc35782515f03611bbc576001600160a01b0385163b611bbc5760405162461bcd60e51b815260206004820152601d60248201527f416464726573733a2063616c6c20746f206e6f6e2d636f6e747261637400000060448201526064016105b4565b508161065f565b61065f8383815115611bd85781518083602001fd5b8060405162461bcd60e51b81526004016105b49190611f03565b80356001600160a01b0381168114611c08575f5ffd5b919050565b5f60208284031215611c1d575f5ffd5b6113bf82611bf2565b803563ffffffff81168114611c08575f5ffd5b5f5f83601f840112611c49575f5ffd5b5081356001600160401b03811115611c5f575f5ffd5b602083019150836020828501011115610dfd575f5ffd5b5f5f5f5f5f60808688031215611c8a575f5ffd5b611c9386611c26565b9450602086013593506040860135925060608601356001600160401b03811115611cbb575f5ffd5b611cc788828901611c39565b969995985093965092949392505050565b5f60208284031215611ce8575f5ffd5b6113bf82611c26565b602080825282518282018190525f918401906040840190835b81811015611d2e57835163ffffffff16835260209384019390920191600101611d0a565b509095945050505050565b5f5f60408385031215611d4a575f5ffd5b611d5383611c26565b946020939093013593505050565b5f5f5f5f5f5f60a08789031215611d76575f5ffd5b611d7f87611c26565b9550602087013594506040870135935060608701356001600160401b03811115611da7575f5ffd5b611db389828a01611c39565b9094509250611dc6905060808801611bf2565b90509295509295509295565b5f5f5f5f60608587031215611de5575f5ffd5b611dee85611c26565b93506020850135925060408501356001600160401b03811115611e0f575f5ffd5b611e1b87828801611c39565b95989497509550505050565b5f5f83601f840112611e37575f5ffd5b5081356001600160401b03811115611e4d575f5ffd5b6020830191508360208260051b8501011115610dfd575f5ffd5b5f5f60208385031215611e78575f5ffd5b82356001600160401b03811115611e8d575f5ffd5b611e9985828601611e27565b90969095509350505050565b5f5f5f60608486031215611eb7575f5ffd5b611ec084611c26565b95602085013595506040909401359392505050565b5f81518084528060208401602086015e5f602082860101526020601f19601f83011685010191505092915050565b602081525f6113bf6020830184611ed5565b5f5f60208385031215611f26575f5ffd5b82356001600160401b03811115611f3b575f5ffd5b8301601f81018513611f4b575f5ffd5b80356001600160401b03811115611f60575f5ffd5b8560208260061b8401011115611f74575f5ffd5b6020919091019590945092505050565b5f5f5f60608486031215611f96575f5ffd5b611f9f84611bf2565b9250611fad60208501611bf2565b9150611fbb60408501611bf2565b90509250925092565b5f5f5f5f5f5f5f5f60c0898b031215611fdb575f5ffd5b611fe489611c26565b9750602089013596506040890135955060608901356001600160401b0381111561200c575f5ffd5b6120188b828c01611c39565b90965094505060808901356001600160401b03811115612036575f5ffd5b6120428b828c01611c39565b9094509250612055905060a08a01611bf2565b90509295985092959890939650565b5f5f5f5f60408587031215612077575f5ffd5b84356001600160401b0381111561208c575f5ffd5b61209887828801611e27565b90955093505060208501356001600160401b038111156120b6575f5ffd5b611e1b87828801611e27565b60208082526027908201527f4d61696c626f78436c69656e743a20696e76616c696420636f6e74726163742060408201526673657474696e6760c81b606082015260800190565b5f60208284031215612119575f5ffd5b5051919050565b634e487b7160e01b5f52603260045260245ffd5b634e487b7160e01b5f52601160045260245ffd5b808201808211156108fa576108fa612134565b634e487b7160e01b5f52604160045260245ffd5b6020808252602b908201527f496e697469616c697a61626c653a20636f6e7472616374206973206e6f74206960408201526a6e697469616c697a696e6760a81b606082015260800190565b5f81518060208401855e5f93019283525090919050565b8381528260208201525f6110f760408301846121ba565b63ffffffff8616815284602082015260a060408201525f61220c60a0830186611ed5565b828103606084015261221e8186611ed5565b91505060018060a01b03831660808301529695505050505050565b7f4e6f20726f7574657220656e726f6c6c656420666f7220646f6d61696e3a200081525f6113bf601f8301846121ba565b5f5f85851115612278575f5ffd5b83861115612284575f5ffd5b5050820193919092039150565b803560208310156108fa575f19602084900360031b1b1692915050565b61ffff60f01b8660f01b1681528460028201528360228201526bffffffffffffffffffffffff198360601b1660428201525f61076560568301846121ba565b5f602082840312156122fd575f5ffd5b815180151581146113bf575f5ffd5b818103818111156108fa576108fa612134565b634e487b7160e01b5f52603160045260245ffd5b5f6113bf82846121ba56fea2646970667358221220fdfcf14a2987f7768ac1d089c1c63c04774fafa9015ed3488930171cffe9530b64736f6c634300081c0033",
    "linkReferences": {}
  },
  "methodIdentifiers": {
    "PACKAGE_VERSION()": "93c44847",
    "balanceOf(address)": "70a08231",
    "destinationGas(uint32)": "775313a1",
    "domains()": "440df4f4",
    "enrollRemoteRouter(uint32,bytes32)": "b49c53a7",
    "enrollRemoteRouters(uint32[],bytes32[])": "e9198bf9",
    "handle(uint32,bytes32,bytes)": "56d5d475",
    "hook()": "7f5a7c7b",
    "initialize(address,address,address)": "c0c53b8b",
    "interchainSecurityModule()": "de523cf3",
    "localDomain()": "8d3638f4",
    "mailbox()": "d5438eae",
    "owner()": "8da5cb5b",
    "quoteGasPayment(uint32)": "f2ed8c53",
    "renounceOwnership()": "715018a6",
    "routers(uint32)": "2ead72f6",
    "setDestinationGas((uint32,uint256)[])": "b1bd6436",
    "setDestinationGas(uint32,uint256)": "49d462ef",
    "setHook(address)": "3dfd3873",
    "setInterchainSecurityModule(address)": "0e72cc06",
    "transferOwnership(address)": "f2fde38b",
    "transferRemote(uint32,bytes32,uint256)": "81b4e8b4",
    "transferRemote(uint32,bytes32,uint256,bytes)": "22bc65b9",
    "transferRemote(uint32,bytes32,uint256,bytes,address)": "51debffc",
    "transferRemote(uint32,bytes32,uint256,bytes,bytes,address)": "ca874dcd",
    "unenrollRemoteRouter(uint32)": "efae508a",
    "unenrollRemoteRouters(uint32[])": "71a15b38",
    "wrappedToken()": "996c6cc3"
  },
  "id": 29
}