{
  "abi": [
    {
      "type": "constructor",
      "inputs": [
        {
          "name": "_mailbox",
          "type": "address",
          "internalType": "address"
        }
      ],
      "stateMutability": "nonpayable"
    },
    {
      "type": "receive",
      "stateMutability": "payable"
    },
    {
      "type": "function",
      "name": "PACKAGE_VERSION",
      "inputs": [],
      "outputs": [
        {
          "name": "",
          "type": "string",
          "internalType": "string"
        }
      ],
      "stateMutability": "view"
    },
    {
      "type": "function",
      "name": "balanceOf",
      "inputs": [
        {
          "name": "_account",
          "type": "address",
          "internalType": "address"
        }
      ],
      "outputs": [
        {
          "name": "",
          "type": "uint256",
          "internalType": "uint256"
        }
      ],
      "stateMutability": "view"
    },
    {
      "type": "function",
      "name": "destinationGas",
      "inputs": [
        {
          "name": "",
          "type": "uint32",
          "internalType": "uint32"
        }
      ],
      "outputs": [
        {
          "name": "",
          "type": "uint256",
          "internalType": "uint256"
        }
      ],
      "stateMutability": "view"
    },
    {
      "type": "function",
      "name": "domains",
      "inputs": [],
      "outputs": [
        {
          "name": "",
          "type": "uint32[]",
          "internalType": "uint32[]"
        }
      ],
      "stateMutability": "view"
    },
    {
      "type": "function",
      "name": "enrollRemoteRouter",
      "inputs": [
        {
          "name": "_domain",
          "type": "uint32",
          "internalType": "uint32"
        },
        {
          "name": "_router",
          "type": "bytes32",
          "internalType": "bytes32"
        }
      ],
      "outputs": [],
      "stateMutability": "nonpayable"
    },
    {
      "type": "function",
      "name": "enrollRemoteRouters",
      "inputs": [
        {
          "name": "_domains",
          "type": "uint32[]",
          "internalType": "uint32[]"
        },
        {
          "name": "_addresses",
          "type": "bytes32[]",
          "internalType": "bytes32[]"
        }
      ],
      "outputs": [],
      "stateMutability": "nonpayable"
    },
    {
      "type": "function",
      "name": "handle",
      "inputs": [
        {
          "name": "_origin",
          "type": "uint32",
          "internalType": "uint32"
        },
        {
          "name": "_sender",
          "type": "bytes32",
          "internalType": "bytes32"
        },
        {
          "name": "_message",
          "type": "bytes",
          "internalType": "bytes"
        }
      ],
      "outputs": [],
      "stateMutability": "payable"
    },
    {
      "type": "function",
      "name": "hook",
      "inputs": [],
      "outputs": [
        {
          "name": "",
          "type": "address",
          "internalType": "contract IPostDispatchHook"
        }
      ],
      "stateMutability": "view"
    },
    {
      "type": "function",
      "name": "initialize",
      "inputs": [
        {
          "name": "_hook",
          "type": "address",
          "internalType": "address"
        },
        {
          "name": "_interchainSecurityModule",
          "type": "address",
          "internalType": "address"
        },
        {
          "name": "_owner",
          "type": "address",
          "internalType": "address"
        }
      ],
      "outputs": [],
      "stateMutability": "nonpayable"
    },
    {
      "type": "function",
      "name": "interchainSecurityModule",
      "inputs": [],
      "outputs": [
        {
          "name": "",
          "type": "address",
          "internalType": "contract IInterchainSecurityModule"
        }
      ],
      "stateMutability": "view"
    },
    {
      "type": "function",
      "name": "localDomain",
      "inputs": [],
      "outputs": [
        {
          "name": "",
          "type": "uint32",
          "internalType": "uint32"
        }
      ],
      "stateMutability": "view"
    },
    {
      "type": "function",
      "name": "mailbox",
      "inputs": [],
      "outputs": [
        {
          "name": "",
          "type": "address",
          "internalType": "contract IMailbox"
        }
      ],
      "stateMutability": "view"
    },
    {
      "type": "function",
      "name": "owner",
      "inputs": [],
      "outputs": [
        {
          "name": "",
          "type": "address",
          "internalType": "address"
        }
      ],
      "stateMutability": "view"
    },
    {
      "type": "function",
      "name": "quoteGasPayment",
      "inputs": [
        {
          "name": "_destinationDomain",
          "type": "uint32",
          "internalType": "uint32"
        }
      ],
      "outputs": [
        {
          "name": "",
          "type": "uint256",
          "internalType": "uint256"
        }
      ],
      "stateMutability": "view"
    },
    {
      "type": "function",
      "name": "renounceOwnership",
      "inputs": [],
      "outputs": [],
      "stateMutability": "nonpayable"
    },
    {
      "type": "function",
      "name": "routers",
      "inputs": [
        {
          "name": "_domain",
          "type": "uint32",
          "internalType": "uint32"
        }
      ],
      "outputs": [
        {
          "name": "",
          "type": "bytes32",
          "internalType": "bytes32"
        }
      ],
      "stateMutability": "view"
    },
    {
      "type": "function",
      "name": "setDestinationGas",
      "inputs": [
        {
          "name": "domain",
          "type": "uint32",
          "internalType": "uint32"
        },
        {
          "name": "gas",
          "type": "uint256",
          "internalType": "uint256"
        }
      ],
      "outputs": [],
      "stateMutability": "nonpayable"
    },
    {
      "type": "function",
      "name": "setDestinationGas",
      "inputs": [
        {
          "name": "gasConfigs",
          "type": "tuple[]",
          "internalType": "struct GasRouter.GasRouterConfig[]",
          "components": [
            {
              "name": "domain",
              "type": "uint32",
              "internalType": "uint32"
            },
            {
              "name": "gas",
              "type": "uint256",
              "internalType": "uint256"
            }
          ]
        }
      ],
      "outputs": [],
      "stateMutability": "nonpayable"
    },
    {
      "type": "function",
      "name": "setHook",
      "inputs": [
        {
          "name": "_hook",
          "type": "address",
          "internalType": "address"
        }
      ],
      "outputs": [],
      "stateMutability": "nonpayable"
    },
    {
      "type": "function",
      "name": "setInterchainSecurityModule",
      "inputs": [
        {
          "name": "_module",
          "type": "address",
          "internalType": "address"
        }
      ],
      "outputs": [],
      "stateMutability": "nonpayable"
    },
    {
      "type": "function",
      "name": "transferOwnership",
      "inputs": [
        {
          "name": "newOwner",
          "type": "address",
          "internalType": "address"
        }
      ],
      "outputs": [],
      "stateMutability": "nonpayable"
    },
    {
      "type": "function",
      "name": "transferRemote",
      "inputs": [
        {
          "name": "_destination",
          "type": "uint32",
          "internalType": "uint32"
        },
        {
          "name": "_recipient",
          "type": "bytes32",
          "internalType": "bytes32"
        },
        {
          "name": "_amount",
          "type": "uint256",
          "internalType": "uint256"
        },
        {
          "name": "_tokenMetadata",
          "type": "bytes",
          "internalType": "bytes"
        }
      ],
      "outputs": [
        {
          "name": "messageId",
          "type": "bytes32",
          "internalType": "bytes32"
        }
      ],
      "stateMutability": "payable"
    },
    {
      "type": "function",
      "name": "transferRemote",
      "inputs": [
        {
          "name": "_destination",
          "type": "uint32",
          "internalType": "uint32"
        },
        {
          "name": "_recipient",
          "type": "bytes32",
          "internalType": "bytes32"
        },
        {
          "name": "_amount",
          "type": "uint256",
          "internalType": "uint256"
        },
        {
          "name": "_hookMetadata",
          "type": "bytes",
          "internalType": "bytes"
        },
        {
          "name": "_hook",
          "type": "address",
          "internalType": "address"
        }
      ],
      "outputs": [
        {
          "name": "messageId",
          "type": "bytes32",
          "internalType": "bytes32"
        }
      ],
      "stateMutability": "payable"
    },
    {
      "type": "function",
      "name": "transferRemote",
      "inputs": [
        {
          "name": "_destination",
          "type": "uint32",
          "internalType": "uint32"
        },
        {
          "name": "_recipient",
          "type": "bytes32",
          "internalType": "bytes32"
        },
        {
          "name": "_amount",
          "type": "uint256",
          "internalType": "uint256"
        }
      ],
      "outputs": [
        {
          "name": "messageId",
          "type": "bytes32",
          "internalType": "bytes32"
        }
      ],
      "stateMutability": "payable"
    },
    {
      "type": "function",
      "name": "transferRemote",
      "inputs": [
        {
          "name": "_destination",
          "type": "uint32",
          "internalType": "uint32"
        },
        {
          "name": "_recipient",
          "type": "bytes32",
          "internalType": "bytes32"
        },
        {
          "name": "_amount",
          "type": "uint256",
          "internalType": "uint256"
        },
        {
          "name": "_tokenMetadata",
          "type": "bytes",
          "internalType": "bytes"
        },
        {
          "name": "_hookMetadata",
          "type": "bytes",
          "internalType": "bytes"
        },
        {
          "name": "_hook",
          "type": "address",
          "internalType": "address"
        }
      ],
      "outputs": [
        {
          "name": "messageId",
          "type": "bytes32",
          "internalType": "bytes32"
        }
      ],
      "stateMutability": "payable"
    },
    {
      "type": "function",
      "name": "unenrollRemoteRouter",
      "inputs": [
        {
          "name": "_domain",
          "type": "uint32",
          "internalType": "uint32"
        }
      ],
      "outputs": [],
      "stateMutability": "nonpayable"
    },
    {
      "type": "function",
      "name": "unenrollRemoteRouters",
      "inputs": [
        {
          "name": "_domains",
          "type": "uint32[]",
          "internalType": "uint32[]"
        }
      ],
      "outputs": [],
      "stateMutability": "nonpayable"
    },
    {
      "type": "event",
      "name": "Donation",
      "inputs": [
        {
          "name": "sender",
          "type": "address",
          "indexed": true,
          "internalType": "address"
        },
        {
          "name": "amount",
          "type": "uint256",
          "indexed": false,
          "internalType": "uint256"
        }
      ],
      "anonymous": false
    },
    {
      "type": "event",
      "name": "GasSet",
      "inputs": [
        {
          "name": "domain",
          "type": "uint32",
          "indexed": false,
          "internalType": "uint32"
        },
        {
          "name": "gas",
          "type": "uint256",
          "indexed": false,
          "internalType": "uint256"
        }
      ],
      "anonymous": false
    },
    {
      "type": "event",
      "name": "HookSet",
      "inputs": [
        {
          "name": "_hook",
          "type": "address",
          "indexed": false,
          "internalType": "address"
        }
      ],
      "anonymous": false
    },
    {
      "type": "event",
      "name": "Initialized",
      "inputs": [
        {
          "name": "version",
          "type": "uint8",
          "indexed": false,
          "internalType": "uint8"
        }
      ],
      "anonymous": false
    },
    {
      "type": "event",
      "name": "IsmSet",
      "inputs": [
        {
          "name": "_ism",
          "type": "address",
          "indexed": false,
          "internalType": "address"
        }
      ],
      "anonymous": false
    },
    {
      "type": "event",
      "name": "OwnershipTransferred",
      "inputs": [
        {
          "name": "previousOwner",
          "type": "address",
          "indexed": true,
          "internalType": "address"
        },
        {
          "name": "newOwner",
          "type": "address",
          "indexed": true,
          "internalType": "address"
        }
      ],
      "anonymous": false
    },
    {
      "type": "event",
      "name": "ReceivedTransferRemote",
      "inputs": [
        {
          "name": "origin",
          "type": "uint32",
          "indexed": true,
          "internalType": "uint32"
        },
        {
          "name": "recipient",
          "type": "bytes32",
          "indexed": true,
          "internalType": "bytes32"
        },
        {
          "name": "amount",
          "type": "uint256",
          "indexed": false,
          "internalType": "uint256"
        }
      ],
      "anonymous": false
    },
    {
      "type": "event",
      "name": "SentTransferRemote",
      "inputs": [
        {
          "name": "destination",
          "type": "uint32",
          "indexed": true,
          "internalType": "uint32"
        },
        {
          "name": "recipient",
          "type": "bytes32",
          "indexed": true,
          "internalType": "bytes32"
        },
        {
          "name": "amount",
          "type": "uint256",
          "indexed": false,
          "internalType": "uint256"
        }
      ],
      "anonymous": false
    }
  ],
  "bytecode": {
    "object": "0x60c060405234801561000f575f5ffd5b5060405161233338038061233383398101604081905261002e9161016a565b8080808080806001600160a01b0381163b61008f5760405162461bcd60e51b815260206004820152601e60248201527f4d61696c626f78436c69656e743a20696e76616c6964206d61696c626f780000604482015260640160405180910390fd5b6001600160a01b03821660808190526040805163234d8e3d60e21b81529051638d3638f4916004808201926020929091908290030181865afa1580156100d7573d5f5f3e3d5ffd5b505050506040513d601f19601f820116820180604052508101906100fb9190610197565b63ffffffff1660a05261010d33610119565b505050505050506101ba565b603380546001600160a01b038381166001600160a01b0319831681179093556040519116919082907f8be0079c531659141344cd1fd0a4f28419497f9722a3daafe3b4186f6b6457e0905f90a35050565b5f6020828403121561017a575f5ffd5b81516001600160a01b0381168114610190575f5ffd5b9392505050565b5f602082840312156101a7575f5ffd5b815163ffffffff81168114610190575f5ffd5b60805160a0516121436101f05f395f6103a301525f81816104b5015281816107a3015281816111c6015261147801526121435ff3fe608060405260043610610198575f3560e01c806381b4e8b4116100e7578063ca874dcd11610087578063e9198bf911610062578063e9198bf9146104f6578063efae508a14610515578063f2ed8c5314610534578063f2fde38b14610553575f5ffd5b8063ca874dcd14610491578063d5438eae146104a4578063de523cf3146104d7575f5ffd5b806393c44847116100c257806393c44847146103f7578063b1bd643614610434578063b49c53a714610453578063c0c53b8b14610472575f5ffd5b806381b4e8b41461037f5780638d3638f4146103925780638da5cb5b146103da575f5ffd5b806351debffc11610152578063715018a61161012d578063715018a6146102ea57806371a15b38146102fe578063775313a11461031d5780637f5a7c7b14610348575f5ffd5b806351debffc1461029d57806356d5d475146102b057806370a08231146102c3575f5ffd5b80630e72cc06146101d857806322bc65b9146101f95780632ead72f61461021f5780633dfd38731461023e578063440df4f41461025d57806349d462ef1461027e575f5ffd5b366101d45760405134815233907f5d8bc849764969eb1bcc6d0a2f55999d0167c1ccec240a4f39cf664ca9c4148e9060200160405180910390a2005b5f5ffd5b3480156101e3575f5ffd5b506101f76101f23660046119d1565b610572565b005b61020c610207366004611a3a565b610615565b6040519081526020015b60405180910390f35b34801561022a575f5ffd5b5061020c610239366004611a9c565b610643565b348015610249575f5ffd5b506101f76102583660046119d1565b610661565b348015610268575f5ffd5b506102716106f3565b6040516102169190611ab5565b348015610289575f5ffd5b506101f7610298366004611afd565b610704565b61020c6102ab366004611b25565b61071a565b6101f76102be366004611b96565b610798565b3480156102ce575f5ffd5b5061020c6102dd3660046119d1565b6001600160a01b03163190565b3480156102f5575f5ffd5b506101f7610896565b348015610309575f5ffd5b506101f7610318366004611c2b565b6108a9565b348015610328575f5ffd5b5061020c610337366004611a9c565b60ca6020525f908152604090205481565b348015610353575f5ffd5b50606554610367906001600160a01b031681565b6040516001600160a01b039091168152602001610216565b61020c61038d366004611c69565b610903565b34801561039d575f5ffd5b506103c57f000000000000000000000000000000000000000000000000000000000000000081565b60405163ffffffff9091168152602001610216565b3480156103e5575f5ffd5b506033546001600160a01b0316610367565b348015610402575f5ffd5b5061042760405180604001604052806005815260200164352e382e3360d81b81525081565b6040516102169190611cc7565b34801561043f575f5ffd5b506101f761044e366004611cd9565b610946565b34801561045e575f5ffd5b506101f761046d366004611afd565b6109bb565b34801561047d575f5ffd5b506101f761048c366004611d48565b6109cd565b61020c61049f366004611d88565b610add565b3480156104af575f5ffd5b506103677f000000000000000000000000000000000000000000000000000000000000000081565b3480156104e2575f5ffd5b50606654610367906001600160a01b031681565b348015610501575f5ffd5b506101f7610510366004611e28565b610b31565b348015610520575f5ffd5b506101f761052f366004611a9c565b610bdf565b34801561053f575f5ffd5b5061020c61054e366004611a9c565b610bf3565b34801561055e575f5ffd5b506101f761056d3660046119d1565b610c22565b806001600160a01b0381163b15158061059257506001600160a01b038116155b6105b75760405162461bcd60e51b81526004016105ae90611e86565b60405180910390fd5b6105bf610c98565b606680546001600160a01b0319166001600160a01b0384169081179091556040519081527fc47cbcc588c67679e52261c45cc315e56562f8d0ccaba16facb9093ff9498799906020015b60405180910390a15050565b5f6106398686863487876106288d610cf2565b6065546001600160a01b0316610d13565b9695505050505050565b5f80610659609763ffffffff80861690610de216565b949350505050565b806001600160a01b0381163b15158061068157506001600160a01b038116155b61069d5760405162461bcd60e51b81526004016105ae90611e86565b6106a5610c98565b606580546001600160a01b0319166001600160a01b0384169081179091556040519081527f4eab7b127c764308788622363ad3e9532de3dfba7845bd4f84c125a22544255a90602001610609565b60606106ff6097610dfa565b905090565b61070c610c98565b6107168282610ea8565b5050565b5f8434101561073b5760405162461bcd60e51b81526004016105ae90611ecd565b5f6107468634611f16565b905061078c8888888489898080601f0160208091040260200160405190810160405280939291908181526020018383808284375f920191909152508b9250610ef5915050565b98975050505050505050565b336001600160a01b037f0000000000000000000000000000000000000000000000000000000000000000161461081a5760405162461bcd60e51b815260206004820152602160248201527f4d61696c626f78436c69656e743a2073656e646572206e6f74206d61696c626f6044820152600f60fb1b60648201526084016105ae565b5f61082485610f77565b90508381146108835760405162461bcd60e51b815260206004820152602560248201527f456e726f6c6c656420726f7574657220646f6573206e6f74206d61746368207360448201526432b73232b960d91b60648201526084016105ae565b61088f85858585610fc1565b5050505050565b61089e610c98565b6108a75f61104a565b565b6108b1610c98565b805f5b818110156108fd576108eb8484838181106108d1576108d1611f29565b90506020020160208101906108e69190611a9c565b61109b565b6108f6600182611f3d565b90506108b4565b50505050565b5f813410156109245760405162461bcd60e51b81526004016105ae90611ecd565b5f61092f8334611f16565b905061093d858585846110d6565b95945050505050565b61094e610c98565b5f5b818110156109b6576109a483838381811061096d5761096d611f29565b6109839260206040909202019081019150611a9c565b84848481811061099557610995611f29565b90506040020160200135610ea8565b6109af600182611f3d565b9050610950565b505050565b6109c3610c98565b61071682826110f8565b5f54610100900460ff16158080156109eb57505f54600160ff909116105b80610a045750303b158015610a0457505f5460ff166001145b610a675760405162461bcd60e51b815260206004820152602e60248201527f496e697469616c697a61626c653a20636f6e747261637420697320616c72656160448201526d191e481a5b9a5d1a585b1a5e995960921b60648201526084016105ae565b5f805460ff191660011790558015610a88575f805461ff0019166101001790555b610a9384848461110e565b80156108fd575f805461ff0019169055604051600181527f7f26b83ff96e1f2b6a682f133852f6798a09c465da95921460cefb38474024989060200160405180910390a150505050565b5f610b24898989348a8a8a8a8080601f0160208091040260200160405190810160405280939291908181526020018383808284375f920191909152508c9250610d13915050565b9998505050505050505050565b610b39610c98565b828114610b725760405162461bcd60e51b8152602060048201526007602482015266042d8cadccee8d60cb1b60448201526064016105ae565b825f5b81811015610bd757610bc5868683818110610b9257610b92611f29565b9050602002016020810190610ba79190611a9c565b858584818110610bb957610bb9611f29565b905060200201356110f8565b610bd0600182611f3d565b9050610b75565b505050505050565b610be7610c98565b610bf08161109b565b50565b60408051602081019091525f8082526065549091610c1c918491906001600160a01b0316611157565b92915050565b610c2a610c98565b6001600160a01b038116610c8f5760405162461bcd60e51b815260206004820152602660248201527f4f776e61626c653a206e6577206f776e657220697320746865207a65726f206160448201526564647265737360d01b60648201526084016105ae565b610bf08161104a565b6033546001600160a01b031633146108a75760405162461bcd60e51b815260206004820181905260248201527f4f776e61626c653a2063616c6c6572206973206e6f7420746865206f776e657260448201526064016105ae565b63ffffffff81165f90815260ca6020526040902054606090610c1c9061116c565b5f86861015610d345760405162461bcd60e51b81526004016105ae90611ecd565b5f610d3f8888611f16565b90505f610d828a8a89898080601f0160208091040260200160405190810160405280939291908181526020018383808284375f9201919091525061118892505050565b9050610d918b838388886111b7565b9250898b63ffffffff167fd229aacb94204188fe8042965fa6b269c62dc5818b21238779ab64bdd17efeec8b604051610dcc91815260200190565b60405180910390a3505098975050505050505050565b5f80610dee8484611265565b915091505b9250929050565b60605f610e068361129d565b905080516001600160401b03811115610e2157610e21611f50565b604051908082528060200260200182016040528015610e4a578160200160208202803683370190505b5091505f5b8151811015610ea157818181518110610e6a57610e6a611f29565b6020026020010151838281518110610e8457610e84611f29565b63ffffffff90921660209283029190910190910152600101610e4f565b5050919050565b63ffffffff82165f81815260ca6020908152604091829020849055815192835282018390527fc3de732a98b24a2b5c6f67e8a7fb057ffc14046b83968a2c73e4148d2fba978b9101610609565b5f5f610f0b60408051602081019091525f815290565b90505f610f19888884611188565b9050610f2889878388886111b7565b9250878963ffffffff167fd229aacb94204188fe8042965fa6b269c62dc5818b21238779ab64bdd17efeec89604051610f6391815260200190565b60405180910390a350509695505050505050565b5f8080610f8e609763ffffffff80871690610de216565b915091508115610f9f579392505050565b610fa88461132a565b60405162461bcd60e51b81526004016105ae9190611cc7565b5f610fcc8383611361565b90505f610fd9848461137f565b9050365f610fe7868661138e565b91509150610fff610ff78561139d565b848484611405565b838863ffffffff167fba20947a325f450d232530e5f5fce293e7963499d5309a07cee84a269f2f15a68560405161103891815260200190565b60405180910390a35050505050505050565b603380546001600160a01b038381166001600160a01b0319831681179093556040519116919082907f8be0079c531659141344cd1fd0a4f28419497f9722a3daafe3b4186f6b6457e0905f90a35050565b6110af609763ffffffff8084169061140f16565b6110b88261132a565b906107165760405162461bcd60e51b81526004016105ae9190611cc7565b5f61093d858585856110e78a610cf2565b6065546001600160a01b0316610ef5565b610716609763ffffffff80851690849061141a16565b5f54610100900460ff166111345760405162461bcd60e51b81526004016105ae90611f64565b61113c611425565b61114583610661565b61114e82610572565b6109b68161104a565b5f610659848461116687610cf2565b85611453565b6060610c1c5f833360405180602001604052805f8152506114f4565b606083838360405160200161119f93929190611fc6565b60405160208183030381529060405290509392505050565b5f5f6111c287610f77565b90507f00000000000000000000000000000000000000000000000000000000000000006001600160a01b03166310b83dc08789848989896040518763ffffffff1660e01b8152600401611219959493929190611fdd565b60206040518083038185885af1158015611235573d5f5f3e3d5ffd5b50505050506040513d601f19601f8201168201806040525081019061125a919061202e565b979650505050505050565b5f818152600283016020526040812054819080611292576112868585611529565b92505f9150610df39050565b600192509050610df3565b60605f6112a983611534565b9050806001600160401b038111156112c3576112c3611f50565b6040519080825280602002602001820160405280156112ec578160200160208202803683370190505b5091505f5b81811015610ea157611303848261153e565b5f1c83828151811061131757611317611f29565b60209081029190910101526001016112f1565b606061133b8263ffffffff16611549565b60405160200161134b9190612045565b6040516020818303038152906040529050919050565b5f61136f6020828486612076565b6113789161209d565b9392505050565b5f61136f604060208486612076565b365f610dee8360408187612076565b5f6001600160a01b038211156114015760405162461bcd60e51b8152602060048201526024808201527f5479706543617374733a2062797465733332546f41646472657373206f766572604482015263666c6f7760e01b60648201526084016105ae565b5090565b6108fd84846115d8565b5f61137883836116ed565b6108fd838383611709565b5f54610100900460ff1661144b5760405162461bcd60e51b81526004016105ae90611f64565b6108a7611725565b5f5f61145e86610f77565b6040516381d2ea9560e01b81529091506001600160a01b037f000000000000000000000000000000000000000000000000000000000000000016906381d2ea95906114b590899085908a908a908a90600401611fdd565b602060405180830381865afa1580156114d0573d5f5f3e3d5ffd5b505050506040513d601f19601f82011682018060405250810190610639919061202e565b60606001858585856040516020016115109594939291906120ba565b6040516020818303038152906040529050949350505050565b5f6113788383611754565b5f610c1c8261176b565b5f6113788383611774565b60605f6115558361179a565b60010190505f816001600160401b0381111561157357611573611f50565b6040519080825280601f01601f19166020018201604052801561159d576020820181803683370190505b5090508181016020015b5f19016f181899199a1a9b1b9c1cb0b131b232b360811b600a86061a8153600a85049450846115a757509392505050565b804710156116285760405162461bcd60e51b815260206004820152601d60248201527f416464726573733a20696e73756666696369656e742062616c616e636500000060448201526064016105ae565b5f826001600160a01b0316826040515f6040518083038185875af1925050503d805f8114611671576040519150601f19603f3d011682016040523d82523d5f602084013e611676565b606091505b50509050806109b65760405162461bcd60e51b815260206004820152603a60248201527f416464726573733a20756e61626c6520746f2073656e642076616c75652c207260448201527f6563697069656e74206d6179206861766520726576657274656400000000000060648201526084016105ae565b5f81815260028301602052604081208190556113788383611871565b5f8281526002840160205260408120829055610659848461187c565b5f54610100900460ff1661174b5760405162461bcd60e51b81526004016105ae90611f64565b6108a73361104a565b5f8181526001830160205260408120541515611378565b5f610c1c825490565b5f825f01828154811061178957611789611f29565b905f5260205f200154905092915050565b5f8072184f03e93ff9f4daa797ed6e38ed64bf6a1f0160401b83106117d85772184f03e93ff9f4daa797ed6e38ed64bf6a1f0160401b830492506040015b6d04ee2d6d415b85acef81000000008310611804576d04ee2d6d415b85acef8100000000830492506020015b662386f26fc10000831061182257662386f26fc10000830492506010015b6305f5e100831061183a576305f5e100830492506008015b612710831061184e57612710830492506004015b60648310611860576064830492506002015b600a8310610c1c5760010192915050565b5f6113788383611887565b5f611378838361196a565b5f8181526001830160205260408120548015611961575f6118a9600183611f16565b85549091505f906118bc90600190611f16565b905081811461191b575f865f0182815481106118da576118da611f29565b905f5260205f200154905080875f0184815481106118fa576118fa611f29565b5f918252602080832090910192909255918252600188019052604090208390555b855486908061192c5761192c6120f9565b600190038181905f5260205f20015f90559055856001015f8681526020019081526020015f205f905560019350505050610c1c565b5f915050610c1c565b5f8181526001830160205260408120546119af57508154600181810184555f848152602080822090930184905584548482528286019093526040902091909155610c1c565b505f610c1c565b80356001600160a01b03811681146119cc575f5ffd5b919050565b5f602082840312156119e1575f5ffd5b611378826119b6565b803563ffffffff811681146119cc575f5ffd5b5f5f83601f840112611a0d575f5ffd5b5081356001600160401b03811115611a23575f5ffd5b602083019150836020828501011115610df3575f5ffd5b5f5f5f5f5f60808688031215611a4e575f5ffd5b611a57866119ea565b9450602086013593506040860135925060608601356001600160401b03811115611a7f575f5ffd5b611a8b888289016119fd565b969995985093965092949392505050565b5f60208284031215611aac575f5ffd5b611378826119ea565b602080825282518282018190525f918401906040840190835b81811015611af257835163ffffffff16835260209384019390920191600101611ace565b509095945050505050565b5f5f60408385031215611b0e575f5ffd5b611b17836119ea565b946020939093013593505050565b5f5f5f5f5f5f60a08789031215611b3a575f5ffd5b611b43876119ea565b9550602087013594506040870135935060608701356001600160401b03811115611b6b575f5ffd5b611b7789828a016119fd565b9094509250611b8a9050608088016119b6565b90509295509295509295565b5f5f5f5f60608587031215611ba9575f5ffd5b611bb2856119ea565b93506020850135925060408501356001600160401b03811115611bd3575f5ffd5b611bdf878288016119fd565b95989497509550505050565b5f5f83601f840112611bfb575f5ffd5b5081356001600160401b03811115611c11575f5ffd5b6020830191508360208260051b8501011115610df3575f5ffd5b5f5f60208385031215611c3c575f5ffd5b82356001600160401b03811115611c51575f5ffd5b611c5d85828601611beb565b90969095509350505050565b5f5f5f60608486031215611c7b575f5ffd5b611c84846119ea565b95602085013595506040909401359392505050565b5f81518084528060208401602086015e5f602082860101526020601f19601f83011685010191505092915050565b602081525f6113786020830184611c99565b5f5f60208385031215611cea575f5ffd5b82356001600160401b03811115611cff575f5ffd5b8301601f81018513611d0f575f5ffd5b80356001600160401b03811115611d24575f5ffd5b8560208260061b8401011115611d38575f5ffd5b6020919091019590945092505050565b5f5f5f60608486031215611d5a575f5ffd5b611d63846119b6565b9250611d71602085016119b6565b9150611d7f604085016119b6565b90509250925092565b5f5f5f5f5f5f5f5f60c0898b031215611d9f575f5ffd5b611da8896119ea565b9750602089013596506040890135955060608901356001600160401b03811115611dd0575f5ffd5b611ddc8b828c016119fd565b90965094505060808901356001600160401b03811115611dfa575f5ffd5b611e068b828c016119fd565b9094509250611e19905060a08a016119b6565b90509295985092959890939650565b5f5f5f5f60408587031215611e3b575f5ffd5b84356001600160401b03811115611e50575f5ffd5b611e5c87828801611beb565b90955093505060208501356001600160401b03811115611e7a575f5ffd5b611bdf87828801611beb565b60208082526027908201527f4d61696c626f78436c69656e743a20696e76616c696420636f6e74726163742060408201526673657474696e6760c81b606082015260800190565b6020808252818101527f4e61746976653a20616d6f756e742065786365656473206d73672e76616c7565604082015260600190565b634e487b7160e01b5f52601160045260245ffd5b81810381811115610c1c57610c1c611f02565b634e487b7160e01b5f52603260045260245ffd5b80820180821115610c1c57610c1c611f02565b634e487b7160e01b5f52604160045260245ffd5b6020808252602b908201527f496e697469616c697a61626c653a20636f6e7472616374206973206e6f74206960408201526a6e697469616c697a696e6760a81b606082015260800190565b5f81518060208401855e5f93019283525090919050565b8381528260208201525f61093d6040830184611faf565b63ffffffff8616815284602082015260a060408201525f61200160a0830186611c99565b82810360608401526120138186611c99565b91505060018060a01b03831660808301529695505050505050565b5f6020828403121561203e575f5ffd5b5051919050565b7f4e6f20726f7574657220656e726f6c6c656420666f7220646f6d61696e3a200081525f611378601f830184611faf565b5f5f85851115612084575f5ffd5b83861115612090575f5ffd5b5050820193919092039150565b80356020831015610c1c575f19602084900360031b1b1692915050565b61ffff60f01b8660f01b1681528460028201528360228201526bffffffffffffffffffffffff198360601b1660428201525f61125a6056830184611faf565b634e487b7160e01b5f52603160045260245ffdfea2646970667358221220c1bfa9e9ea811d7891ce15f8994f9c73fa948a1d2ffe28f55799bac9662ebe0b64736f6c634300081c0033",
    "linkReferences": {}
  },
  "methodIdentifiers": {
    "PACKAGE_VERSION()": "93c44847",
    "balanceOf(address)": "70a08231",
    "destinationGas(uint32)": "775313a1",
    "domains()": "440df4f4",
    "enrollRemoteRouter(uint32,bytes32)": "b49c53a7",
    "enrollRemoteRouters(uint32[],bytes32[])": "e9198bf9",
    "handle(uint32,bytes32,bytes)": "56d5d475",
    "hook()": "7f5a7c7b",
    "initialize(address,address,address)": "c0c53b8b",
    "interchainSecurityModule()": "de523cf3",
    "localDomain()": "8d3638f4",
    "mailbox()": "d5438eae",
    "owner()": "8da5cb5b",
    "quoteGasPayment(uint32)": "f2ed8c53",
    "renounceOwnership()": "715018a6",
    "routers(uint32)": "2ead72f6",
    "setDestinationGas((uint32,uint256)[])": "b1bd6436",
    "setDestinationGas(uint32,uint256)": "49d462ef",
    "setHook(address)": "3dfd3873",
    "setInterchainSecurityModule(address)": "0e72cc06",
    "transferOwnership(address)": "f2fde38b",
    "transferRemote(uint32,bytes32,uint256)": "81b4e8b4",
    "transferRemote(uint32,bytes32,uint256,bytes)": "22bc65b9",
    "transferRemote(uint32,bytes32,uint256,bytes,address)": "51debffc",
    "transferRemote(uint32,bytes32,uint256,bytes,bytes,address)": "ca874dcd",
    "unenrollRemoteRouter(uint32)": "efae508a",
    "unenrollRemoteRouters(uint32[])": "71a15b38"
  },
  "id": 30
}