{
  "_format": "hh-sol-artifact-1",
  "contractName": "DefaultFallbackRoutingIsm",
  "sourceName": "contracts/isms/routing/DefaultFallbackRoutingIsm.sol",
  "abi": [
    {
      "inputs": [
        {
          "internalType": "address",
          "name": "_mailbox",
          "type": "address"
        }
      ],
      "stateMutability": "nonpayable",
      "type": "constructor"
    },
    {
      "anonymous": false,
      "inputs": [
        {
          "indexed": false,
          "internalType": "address",
          "name": "_hook",
          "type": "address"
        }
      ],
      "name": "HookSet",
      "type": "event"
    },
    {
      "anonymous": false,
      "inputs": [
        {
          "indexed": false,
          "internalType": "uint8",
          "name": "version",
          "type": "uint8"
        }
      ],
      "name": "Initialized",
      "type": "event"
    },
    {
      "anonymous": false,
      "inputs": [
        {
          "indexed": false,
          "internalType": "address",
          "name": "_ism",
          "type": "address"
        }
      ],
      "name": "IsmSet",
      "type": "event"
    },
    {
      "anonymous": false,
      "inputs": [
        {
          "indexed": true,
          "internalType": "address",
          "name": "previousOwner",
          "type": "address"
        },
        {
          "indexed": true,
          "internalType": "address",
          "name": "newOwner",
          "type": "address"
        }
      ],
      "name": "OwnershipTransferred",
      "type": "event"
    },
    {
      "inputs": [],
      "name": "PACKAGE_VERSION",
      "outputs": [
        {
          "internalType": "string",
          "name": "",
          "type": "string"
        }
      ],
      "stateMutability": "view",
      "type": "function"
    },
    {
      "inputs": [],
      "name": "domains",
      "outputs": [
        {
          "internalType": "uint256[]",
          "name": "",
          "type": "uint256[]"
        }
      ],
      "stateMutability": "view",
      "type": "function"
    },
    {
      "inputs": [],
      "name": "hook",
      "outputs": [
        {
          "internalType": "contract IPostDispatchHook",
          "name": "",
          "type": "address"
        }
      ],
      "stateMutability": "view",
      "type": "function"
    },
    {
      "inputs": [
        {
          "internalType": "address",
          "name": "_owner",
          "type": "address"
        },
        {
          "internalType": "uint32[]",
          "name": "_domains",
          "type": "uint32[]"
        },
        {
          "internalType": "contract IInterchainSecurityModule[]",
          "name": "__modules",
          "type": "address[]"
        }
      ],
      "name": "initialize",
      "outputs": [],
      "stateMutability": "nonpayable",
      "type": "function"
    },
    {
      "inputs": [
        {
          "internalType": "address",
          "name": "_owner",
          "type": "address"
        }
      ],
      "name": "initialize",
      "outputs": [],
      "stateMutability": "nonpayable",
      "type": "function"
    },
    {
      "inputs": [],
      "name": "interchainSecurityModule",
      "outputs": [
        {
          "internalType": "contract IInterchainSecurityModule",
          "name": "",
          "type": "address"
        }
      ],
      "stateMutability": "view",
      "type": "function"
    },
    {
      "inputs": [],
      "name": "localDomain",
      "outputs": [
        {
          "internalType": "uint32",
          "name": "",
          "type": "uint32"
        }
      ],
      "stateMutability": "view",
      "type": "function"
    },
    {
      "inputs": [],
      "name": "mailbox",
      "outputs": [
        {
          "internalType": "contract IMailbox",
          "name": "",
          "type": "address"
        }
      ],
      "stateMutability": "view",
      "type": "function"
    },
    {
      "inputs": [
        {
          "internalType": "uint32",
          "name": "origin",
          "type": "uint32"
        }
      ],
      "name": "module",
      "outputs": [
        {
          "internalType": "contract IInterchainSecurityModule",
          "name": "",
          "type": "address"
        }
      ],
      "stateMutability": "view",
      "type": "function"
    },
    {
      "inputs": [],
      "name": "moduleType",
      "outputs": [
        {
          "internalType": "uint8",
          "name": "",
          "type": "uint8"
        }
      ],
      "stateMutability": "view",
      "type": "function"
    },
    {
      "inputs": [],
      "name": "owner",
      "outputs": [
        {
          "internalType": "address",
          "name": "",
          "type": "address"
        }
      ],
      "stateMutability": "view",
      "type": "function"
    },
    {
      "inputs": [
        {
          "internalType": "uint32",
          "name": "_domain",
          "type": "uint32"
        }
      ],
      "name": "remove",
      "outputs": [],
      "stateMutability": "nonpayable",
      "type": "function"
    },
    {
      "inputs": [],
      "name": "renounceOwnership",
      "outputs": [],
      "stateMutability": "nonpayable",
      "type": "function"
    },
    {
      "inputs": [
        {
          "internalType": "bytes",
          "name": "_message",
          "type": "bytes"
        }
      ],
      "name": "route",
      "outputs": [
        {
          "internalType": "contract IInterchainSecurityModule",
          "name": "",
          "type": "address"
        }
      ],
      "stateMutability": "view",
      "type": "function"
    },
    {
      "inputs": [
        {
          "internalType": "uint32",
          "name": "_domain",
          "type": "uint32"
        },
        {
          "internalType": "contract IInterchainSecurityModule",
          "name": "_module",
          "type": "address"
        }
      ],
      "name": "set",
      "outputs": [],
      "stateMutability": "nonpayable",
      "type": "function"
    },
    {
      "inputs": [
        {
          "internalType": "address",
          "name": "_hook",
          "type": "address"
        }
      ],
      "name": "setHook",
      "outputs": [],
      "stateMutability": "nonpayable",
      "type": "function"
    },
    {
      "inputs": [
        {
          "internalType": "address",
          "name": "_module",
          "type": "address"
        }
      ],
      "name": "setInterchainSecurityModule",
      "outputs": [],
      "stateMutability": "nonpayable",
      "type": "function"
    },
    {
      "inputs": [
        {
          "internalType": "address",
          "name": "newOwner",
          "type": "address"
        }
      ],
      "name": "transferOwnership",
      "outputs": [],
      "stateMutability": "nonpayable",
      "type": "function"
    },
    {
      "inputs": [
        {
          "internalType": "bytes",
          "name": "_metadata",
          "type": "bytes"
        },
        {
          "internalType": "bytes",
          "name": "_message",
          "type": "bytes"
        }
      ],
      "name": "verify",
      "outputs": [
        {
          "internalType": "bool",
          "name": "",
          "type": "bool"
        }
      ],
      "stateMutability": "nonpayable",
      "type": "function"
    }
  ],
  "bytecode": "0x60c06040523480156200001157600080fd5b5060405162001d0238038062001d02833981016040819052620000349162000172565b80806001600160a01b0381163b620000925760405162461bcd60e51b815260206004820152601e60248201527f4d61696c626f78436c69656e743a20696e76616c6964206d61696c626f780000604482015260640160405180910390fd5b6001600160a01b03821660808190526040805163234d8e3d60e21b81529051638d3638f4916004808201926020929091908290030181865afa158015620000dd573d6000803e3d6000fd5b505050506040513d601f19601f82011682018060405250810190620001039190620001a4565b63ffffffff1660a052620001173362000120565b505050620001cc565b603380546001600160a01b038381166001600160a01b0319831681179093556040519116919082907f8be0079c531659141344cd1fd0a4f28419497f9722a3daafe3b4186f6b6457e090600090a35050565b6000602082840312156200018557600080fd5b81516001600160a01b03811681146200019d57600080fd5b9392505050565b600060208284031215620001b757600080fd5b815163ffffffff811681146200019d57600080fd5b60805160a051611b09620001f9600039600061023c0152600081816103050152610c0c0152611b096000f3fe608060405234801561001057600080fd5b50600436106101505760003560e01c80638d3638f4116100cd578063d5438eae11610081578063f2fde38b11610066578063f2fde38b14610345578063f7e83aee14610358578063fbc69aab1461037b57600080fd5b8063d5438eae14610300578063de523cf31461032757600080fd5b806393c44847116100b257806393c44847146102915780639d8ecd85146102da578063c4d66de8146102ed57600080fd5b80638d3638f4146102375780638da5cb5b1461027357600080fd5b8063440df4f4116101245780636465e69f116101095780636465e69f146101f5578063715018a61461020f5780637f5a7c7b1461021757600080fd5b8063440df4f4146101cd5780634c0a2ffc146101e257600080fd5b8062d84fd8146101555780630e72cc061461016a57806315ce45a21461017d5780633dfd3873146101ba575b600080fd5b610168610163366004611592565b61038e565b005b6101686101783660046115cf565b6103a2565b61019061018b366004611635565b6104f0565b60405173ffffffffffffffffffffffffffffffffffffffff90911681526020015b60405180910390f35b6101686101c83660046115cf565b610508565b6101d5610649565b6040516101b19190611677565b6101686101f03660046116bb565b61065a565b6101fd600181565b60405160ff90911681526020016101b1565b610168610670565b6068546101909073ffffffffffffffffffffffffffffffffffffffff1681565b61025e7f000000000000000000000000000000000000000000000000000000000000000081565b60405163ffffffff90911681526020016101b1565b60335473ffffffffffffffffffffffffffffffffffffffff16610190565b6102cd6040518060400160405280600681526020017f31302e302e32000000000000000000000000000000000000000000000000000081525081565b6040516101b19190611716565b6101686102e83660046117ac565b610684565b6101686102fb3660046115cf565b6108f9565b6101907f000000000000000000000000000000000000000000000000000000000000000081565b60695473ffffffffffffffffffffffffffffffffffffffff16610190565b6101686103533660046115cf565b610a8d565b61036b61036636600461182f565b610b41565b60405190151581526020016101b1565b610190610389366004611592565b610bd7565b610396610ca0565b61039f81610d21565b50565b8073ffffffffffffffffffffffffffffffffffffffff81163b1515806103dc575073ffffffffffffffffffffffffffffffffffffffff8116155b61046d576040517f08c379a000000000000000000000000000000000000000000000000000000000815260206004820152602760248201527f4d61696c626f78436c69656e743a20696e76616c696420636f6e74726163742060448201527f73657474696e670000000000000000000000000000000000000000000000000060648201526084015b60405180910390fd5b610475610ca0565b606980547fffffffffffffffffffffffff00000000000000000000000000000000000000001673ffffffffffffffffffffffffffffffffffffffff84169081179091556040519081527fc47cbcc588c67679e52261c45cc315e56562f8d0ccaba16facb9093ff9498799906020015b60405180910390a15050565b60006104ff6103898484610d76565b90505b92915050565b8073ffffffffffffffffffffffffffffffffffffffff81163b151580610542575073ffffffffffffffffffffffffffffffffffffffff8116155b6105ce576040517f08c379a000000000000000000000000000000000000000000000000000000000815260206004820152602760248201527f4d61696c626f78436c69656e743a20696e76616c696420636f6e74726163742060448201527f73657474696e67000000000000000000000000000000000000000000000000006064820152608401610464565b6105d6610ca0565b606880547fffffffffffffffffffffffff00000000000000000000000000000000000000001673ffffffffffffffffffffffffffffffffffffffff84169081179091556040519081527f4eab7b127c764308788622363ad3e9532de3dfba7845bd4f84c125a22544255a906020016104e4565b60606106556065610d99565b905090565b610662610ca0565b61066c8282610e2a565b5050565b610678610ca0565b6106826000610ed0565b565b600054610100900460ff16158080156106a45750600054600160ff909116105b806106be5750303b1580156106be575060005460ff166001145b61074a576040517f08c379a000000000000000000000000000000000000000000000000000000000815260206004820152602e60248201527f496e697469616c697a61626c653a20636f6e747261637420697320616c72656160448201527f647920696e697469616c697a65640000000000000000000000000000000000006064820152608401610464565b600080547fffffffffffffffffffffffffffffffffffffffffffffffffffffffffffffff0016600117905580156107a857600080547fffffffffffffffffffffffffffffffffffffffffffffffffffffffffffff00ff166101001790555b6107b0610f47565b838214610819576040517f08c379a000000000000000000000000000000000000000000000000000000000815260206004820152600f60248201527f6c656e677468206d69736d6174636800000000000000000000000000000000006044820152606401610464565b8360005b818110156108835761087b87878381811061083a5761083a61189b565b905060200201602081019061084f9190611592565b8686848181106108615761086161189b565b905060200201602081019061087691906115cf565b610e2a565b60010161081d565b5061088d87610ed0565b5080156108f157600080547fffffffffffffffffffffffffffffffffffffffffffffffffffffffffffff00ff169055604051600181527f7f26b83ff96e1f2b6a682f133852f6798a09c465da95921460cefb38474024989060200160405180910390a15b505050505050565b600054610100900460ff16158080156109195750600054600160ff909116105b806109335750303b158015610933575060005460ff166001145b6109bf576040517f08c379a000000000000000000000000000000000000000000000000000000000815260206004820152602e60248201527f496e697469616c697a61626c653a20636f6e747261637420697320616c72656160448201527f647920696e697469616c697a65640000000000000000000000000000000000006064820152608401610464565b600080547fffffffffffffffffffffffffffffffffffffffffffffffffffffffffffffff001660011790558015610a1d57600080547fffffffffffffffffffffffffffffffffffffffffffffffffffffffffffff00ff166101001790555b610a25610f47565b610a2e82610ed0565b801561066c57600080547fffffffffffffffffffffffffffffffffffffffffffffffffffffffffffff00ff169055604051600181527f7f26b83ff96e1f2b6a682f133852f6798a09c465da95921460cefb3847402498906020016104e4565b610a95610ca0565b73ffffffffffffffffffffffffffffffffffffffff8116610b38576040517f08c379a000000000000000000000000000000000000000000000000000000000815260206004820152602660248201527f4f776e61626c653a206e6577206f776e657220697320746865207a65726f206160448201527f64647265737300000000000000000000000000000000000000000000000000006064820152608401610464565b61039f81610ed0565b6000610b4d83836104f0565b73ffffffffffffffffffffffffffffffffffffffff1663f7e83aee868686866040518563ffffffff1660e01b8152600401610b8b9493929190611913565b6020604051808303816000875af1158015610baa573d6000803e3d6000fd5b505050506040513d601f19601f82011682018060405250810190610bce9190611945565b95945050505050565b60008080610bef606563ffffffff80871690610fe616565b915091508115610c0a57610c0281610fff565b949350505050565b7f000000000000000000000000000000000000000000000000000000000000000073ffffffffffffffffffffffffffffffffffffffff16636e5f516e6040518163ffffffff1660e01b8152600401602060405180830381865afa158015610c75573d6000803e3d6000fd5b505050506040513d601f19601f82011682018060405250810190610c029190611967565b5050919050565b60335473ffffffffffffffffffffffffffffffffffffffff163314610682576040517f08c379a000000000000000000000000000000000000000000000000000000000815260206004820181905260248201527f4f776e61626c653a2063616c6c6572206973206e6f7420746865206f776e65726044820152606401610464565b610d35606563ffffffff808416906110a816565b610d3e826110b4565b9061066c576040517f08c379a00000000000000000000000000000000000000000000000000000000081526004016104649190611716565b6000610d86600960058486611984565b610d8f916119ae565b60e01c9392505050565b60606000610da6836110eb565b90508067ffffffffffffffff811115610dc157610dc16119f6565b604051908082528060200260200182016040528015610dea578160200160208202803683370190505b50915060005b81811015610c9957610e0284826110f6565b60001c838281518110610e1757610e1761189b565b6020908102919091010152600101610df0565b73ffffffffffffffffffffffffffffffffffffffff81163b610ea8576040517f08c379a000000000000000000000000000000000000000000000000000000000815260206004820152601660248201527f49534d206d757374206265206120636f6e7472616374000000000000000000006044820152606401610464565b61066c606563ffffffff841673ffffffffffffffffffffffffffffffffffffffff8416611102565b6033805473ffffffffffffffffffffffffffffffffffffffff8381167fffffffffffffffffffffffff0000000000000000000000000000000000000000831681179093556040519116919082907f8be0079c531659141344cd1fd0a4f28419497f9722a3daafe3b4186f6b6457e090600090a35050565b600054610100900460ff16610fde576040517f08c379a000000000000000000000000000000000000000000000000000000000815260206004820152602b60248201527f496e697469616c697a61626c653a20636f6e7472616374206973206e6f74206960448201527f6e697469616c697a696e670000000000000000000000000000000000000000006064820152608401610464565b610682611113565b600080610ff384846111b3565b915091505b9250929050565b600073ffffffffffffffffffffffffffffffffffffffff8211156110a4576040517f08c379a0000000000000000000000000000000000000000000000000000000008152602060048201526024808201527f5479706543617374733a2062797465733332546f41646472657373206f76657260448201527f666c6f77000000000000000000000000000000000000000000000000000000006064820152608401610464565b5090565b60006104ff83836111ed565b60606110c58263ffffffff1661120a565b6040516020016110d59190611a25565b6040516020818303038152906040529050919050565b6000610502826112c8565b60006104ff83836112d2565b61110d8383836112fc565b50505050565b600054610100900460ff166111aa576040517f08c379a000000000000000000000000000000000000000000000000000000000815260206004820152602b60248201527f496e697469616c697a61626c653a20636f6e7472616374206973206e6f74206960448201527f6e697469616c697a696e670000000000000000000000000000000000000000006064820152608401610464565b61068233610ed0565b60008181526002830160205260408120548190806111e2576111d58585611319565b925060009150610ff89050565b600192509050610ff8565b600081815260028301602052604081208190556104ff8383611325565b6060600061121783611331565b600101905060008167ffffffffffffffff811115611237576112376119f6565b6040519080825280601f01601f191660200182016040528015611261576020820181803683370190505b5090508181016020015b7fffffffffffffffffffffffffffffffffffffffffffffffffffffffffffffffff017f3031323334353637383961626364656600000000000000000000000000000000600a86061a8153600a850494508461126b57509392505050565b6000610502825490565b60008260000182815481106112e9576112e961189b565b9060005260206000200154905092915050565b60008281526002840160205260408120829055610c028484611413565b60006104ff838361141f565b60006104ff8383611437565b6000807a184f03e93ff9f4daa797ed6e38ed64bf6a1f010000000000000000831061137a577a184f03e93ff9f4daa797ed6e38ed64bf6a1f010000000000000000830492506040015b6d04ee2d6d415b85acef810000000083106113a6576d04ee2d6d415b85acef8100000000830492506020015b662386f26fc1000083106113c457662386f26fc10000830492506010015b6305f5e10083106113dc576305f5e100830492506008015b61271083106113f057612710830492506004015b60648310611402576064830492506002015b600a83106105025760010192915050565b60006104ff838361152a565b600081815260018301602052604081205415156104ff565b6000818152600183016020526040812054801561152057600061145b600183611a6a565b855490915060009061146f90600190611a6a565b90508181146114d457600086600001828154811061148f5761148f61189b565b90600052602060002001549050808760000184815481106114b2576114b261189b565b6000918252602080832090910192909255918252600188019052604090208390555b85548690806114e5576114e5611aa4565b600190038181906000526020600020016000905590558560010160008681526020019081526020016000206000905560019350505050610502565b6000915050610502565b600081815260018301602052604081205461157157508154600181810184556000848152602080822090930184905584548482528286019093526040902091909155610502565b506000610502565b803563ffffffff8116811461158d57600080fd5b919050565b6000602082840312156115a457600080fd5b6104ff82611579565b73ffffffffffffffffffffffffffffffffffffffff8116811461039f57600080fd5b6000602082840312156115e157600080fd5b81356115ec816115ad565b9392505050565b60008083601f84011261160557600080fd5b50813567ffffffffffffffff81111561161d57600080fd5b602083019150836020828501011115610ff857600080fd5b6000806020838503121561164857600080fd5b823567ffffffffffffffff81111561165f57600080fd5b61166b858286016115f3565b90969095509350505050565b6020808252825182820181905260009190848201906040850190845b818110156116af57835183529284019291840191600101611693565b50909695505050505050565b600080604083850312156116ce57600080fd5b6116d783611579565b915060208301356116e7816115ad565b809150509250929050565b60005b8381101561170d5781810151838201526020016116f5565b50506000910152565b60208152600082518060208401526117358160408501602087016116f2565b601f017fffffffffffffffffffffffffffffffffffffffffffffffffffffffffffffffe0169190910160400192915050565b60008083601f84011261177957600080fd5b50813567ffffffffffffffff81111561179157600080fd5b6020830191508360208260051b8501011115610ff857600080fd5b6000806000806000606086880312156117c457600080fd5b85356117cf816115ad565b9450602086013567ffffffffffffffff808211156117ec57600080fd5b6117f889838a01611767565b9096509450604088013591508082111561181157600080fd5b5061181e88828901611767565b969995985093965092949392505050565b6000806000806040858703121561184557600080fd5b843567ffffffffffffffff8082111561185d57600080fd5b611869888389016115f3565b9096509450602087013591508082111561188257600080fd5b5061188f878288016115f3565b95989497509550505050565b7f4e487b7100000000000000000000000000000000000000000000000000000000600052603260045260246000fd5b8183528181602085013750600060208284010152600060207fffffffffffffffffffffffffffffffffffffffffffffffffffffffffffffffe0601f840116840101905092915050565b6040815260006119276040830186886118ca565b828103602084015261193a8185876118ca565b979650505050505050565b60006020828403121561195757600080fd5b815180151581146115ec57600080fd5b60006020828403121561197957600080fd5b81516115ec816115ad565b6000808585111561199457600080fd5b838611156119a157600080fd5b5050820193919092039150565b7fffffffff0000000000000000000000000000000000000000000000000000000081358181169160048510156119ee5780818660040360031b1b83161692505b505092915050565b7f4e487b7100000000000000000000000000000000000000000000000000000000600052604160045260246000fd5b7f4e6f2049534d20666f756e6420666f72206f726967696e3a2000000000000000815260008251611a5d8160198501602087016116f2565b9190910160190192915050565b81810381811115610502577f4e487b7100000000000000000000000000000000000000000000000000000000600052601160045260246000fd5b7f4e487b7100000000000000000000000000000000000000000000000000000000600052603160045260246000fdfea264697066735822122034b275ab6ad6d4863e6fe1e4ea02b0537e51552a7922bc4400c179294cc09d3f64736f6c63430008160033",
  "linkReferences": {},
  "deployedLinkReferences": {}
}