{
  "_format": "hh-sol-artifact-1",
  "contractName": "HypERC20",
  "sourceName": "contracts/token/HypERC20.sol",
  "abi": [
    {
      "inputs": [
        {
          "internalType": "uint8",
          "name": "__decimals",
          "type": "uint8"
        },
        {
          "internalType": "uint256",
          "name": "_scale",
          "type": "uint256"
        },
        {
          "internalType": "address",
          "name": "_mailbox",
          "type": "address"
        }
      ],
      "stateMutability": "nonpayable",
      "type": "constructor"
    },
    {
      "anonymous": false,
      "inputs": [
        {
          "indexed": true,
          "internalType": "address",
          "name": "owner",
          "type": "address"
        },
        {
          "indexed": true,
          "internalType": "address",
          "name": "spender",
          "type": "address"
        },
        {
          "indexed": false,
          "internalType": "uint256",
          "name": "value",
          "type": "uint256"
        }
      ],
      "name": "Approval",
      "type": "event"
    },
    {
      "anonymous": false,
      "inputs": [
        {
          "indexed": false,
          "internalType": "address",
          "name": "feeRecipient",
          "type": "address"
        }
      ],
      "name": "FeeRecipientSet",
      "type": "event"
    },
    {
      "anonymous": false,
      "inputs": [
        {
          "indexed": false,
          "internalType": "uint32",
          "name": "domain",
          "type": "uint32"
        },
        {
          "indexed": false,
          "internalType": "uint256",
          "name": "gas",
          "type": "uint256"
        }
      ],
      "name": "GasSet",
      "type": "event"
    },
    {
      "anonymous": false,
      "inputs": [
        {
          "indexed": false,
          "internalType": "address",
          "name": "_hook",
          "type": "address"
        }
      ],
      "name": "HookSet",
      "type": "event"
    },
    {
      "anonymous": false,
      "inputs": [
        {
          "indexed": false,
          "internalType": "uint8",
          "name": "version",
          "type": "uint8"
        }
      ],
      "name": "Initialized",
      "type": "event"
    },
    {
      "anonymous": false,
      "inputs": [
        {
          "indexed": false,
          "internalType": "address",
          "name": "_ism",
          "type": "address"
        }
      ],
      "name": "IsmSet",
      "type": "event"
    },
    {
      "anonymous": false,
      "inputs": [
        {
          "indexed": true,
          "internalType": "address",
          "name": "previousOwner",
          "type": "address"
        },
        {
          "indexed": true,
          "internalType": "address",
          "name": "newOwner",
          "type": "address"
        }
      ],
      "name": "OwnershipTransferred",
      "type": "event"
    },
    {
      "anonymous": false,
      "inputs": [
        {
          "indexed": true,
          "internalType": "uint32",
          "name": "origin",
          "type": "uint32"
        },
        {
          "indexed": true,
          "internalType": "bytes32",
          "name": "recipient",
          "type": "bytes32"
        },
        {
          "indexed": false,
          "internalType": "uint256",
          "name": "amountOrId",
          "type": "uint256"
        }
      ],
      "name": "ReceivedTransferRemote",
      "type": "event"
    },
    {
      "anonymous": false,
      "inputs": [
        {
          "indexed": true,
          "internalType": "uint32",
          "name": "destination",
          "type": "uint32"
        },
        {
          "indexed": true,
          "internalType": "bytes32",
          "name": "recipient",
          "type": "bytes32"
        },
        {
          "indexed": false,
          "internalType": "uint256",
          "name": "amountOrId",
          "type": "uint256"
        }
      ],
      "name": "SentTransferRemote",
      "type": "event"
    },
    {
      "anonymous": false,
      "inputs": [
        {
          "indexed": true,
          "internalType": "address",
          "name": "from",
          "type": "address"
        },
        {
          "indexed": true,
          "internalType": "address",
          "name": "to",
          "type": "address"
        },
        {
          "indexed": false,
          "internalType": "uint256",
          "name": "value",
          "type": "uint256"
        }
      ],
      "name": "Transfer",
      "type": "event"
    },
    {
      "inputs": [],
      "name": "PACKAGE_VERSION",
      "outputs": [
        {
          "internalType": "string",
          "name": "",
          "type": "string"
        }
      ],
      "stateMutability": "view",
      "type": "function"
    },
    {
      "inputs": [
        {
          "internalType": "address",
          "name": "owner",
          "type": "address"
        },
        {
          "internalType": "address",
          "name": "spender",
          "type": "address"
        }
      ],
      "name": "allowance",
      "outputs": [
        {
          "internalType": "uint256",
          "name": "",
          "type": "uint256"
        }
      ],
      "stateMutability": "view",
      "type": "function"
    },
    {
      "inputs": [
        {
          "internalType": "address",
          "name": "spender",
          "type": "address"
        },
        {
          "internalType": "uint256",
          "name": "amount",
          "type": "uint256"
        }
      ],
      "name": "approve",
      "outputs": [
        {
          "internalType": "bool",
          "name": "",
          "type": "bool"
        }
      ],
      "stateMutability": "nonpayable",
      "type": "function"
    },
    {
      "inputs": [
        {
          "internalType": "address",
          "name": "account",
          "type": "address"
        }
      ],
      "name": "balanceOf",
      "outputs": [
        {
          "internalType": "uint256",
          "name": "",
          "type": "uint256"
        }
      ],
      "stateMutability": "view",
      "type": "function"
    },
    {
      "inputs": [],
      "name": "decimals",
      "outputs": [
        {
          "internalType": "uint8",
          "name": "",
          "type": "uint8"
        }
      ],
      "stateMutability": "view",
      "type": "function"
    },
    {
      "inputs": [
        {
          "internalType": "address",
          "name": "spender",
          "type": "address"
        },
        {
          "internalType": "uint256",
          "name": "subtractedValue",
          "type": "uint256"
        }
      ],
      "name": "decreaseAllowance",
      "outputs": [
        {
          "internalType": "bool",
          "name": "",
          "type": "bool"
        }
      ],
      "stateMutability": "nonpayable",
      "type": "function"
    },
    {
      "inputs": [
        {
          "internalType": "uint32",
          "name": "destinationDomain",
          "type": "uint32"
        }
      ],
      "name": "destinationGas",
      "outputs": [
        {
          "internalType": "uint256",
          "name": "gasLimit",
          "type": "uint256"
        }
      ],
      "stateMutability": "view",
      "type": "function"
    },
    {
      "inputs": [],
      "name": "domains",
      "outputs": [
        {
          "internalType": "uint32[]",
          "name": "",
          "type": "uint32[]"
        }
      ],
      "stateMutability": "view",
      "type": "function"
    },
    {
      "inputs": [
        {
          "internalType": "uint32",
          "name": "_domain",
          "type": "uint32"
        },
        {
          "internalType": "bytes32",
          "name": "_router",
          "type": "bytes32"
        }
      ],
      "name": "enrollRemoteRouter",
      "outputs": [],
      "stateMutability": "nonpayable",
      "type": "function"
    },
    {
      "inputs": [
        {
          "internalType": "uint32[]",
          "name": "_domains",
          "type": "uint32[]"
        },
        {
          "internalType": "bytes32[]",
          "name": "_addresses",
          "type": "bytes32[]"
        }
      ],
      "name": "enrollRemoteRouters",
      "outputs": [],
      "stateMutability": "nonpayable",
      "type": "function"
    },
    {
      "inputs": [],
      "name": "feeRecipient",
      "outputs": [
        {
          "internalType": "address",
          "name": "",
          "type": "address"
        }
      ],
      "stateMutability": "view",
      "type": "function"
    },
    {
      "inputs": [
        {
          "internalType": "uint32",
          "name": "_origin",
          "type": "uint32"
        },
        {
          "internalType": "bytes32",
          "name": "_sender",
          "type": "bytes32"
        },
        {
          "internalType": "bytes",
          "name": "_message",
          "type": "bytes"
        }
      ],
      "name": "handle",
      "outputs": [],
      "stateMutability": "payable",
      "type": "function"
    },
    {
      "inputs": [],
      "name": "hook",
      "outputs": [
        {
          "internalType": "contract IPostDispatchHook",
          "name": "",
          "type": "address"
        }
      ],
      "stateMutability": "view",
      "type": "function"
    },
    {
      "inputs": [
        {
          "internalType": "address",
          "name": "spender",
          "type": "address"
        },
        {
          "internalType": "uint256",
          "name": "addedValue",
          "type": "uint256"
        }
      ],
      "name": "increaseAllowance",
      "outputs": [
        {
          "internalType": "bool",
          "name": "",
          "type": "bool"
        }
      ],
      "stateMutability": "nonpayable",
      "type": "function"
    },
    {
      "inputs": [
        {
          "internalType": "uint256",
          "name": "_totalSupply",
          "type": "uint256"
        },
        {
          "internalType": "string",
          "name": "_name",
          "type": "string"
        },
        {
          "internalType": "string",
          "name": "_symbol",
          "type": "string"
        },
        {
          "internalType": "address",
          "name": "_hook",
          "type": "address"
        },
        {
          "internalType": "address",
          "name": "_interchainSecurityModule",
          "type": "address"
        },
        {
          "internalType": "address",
          "name": "_owner",
          "type": "address"
        }
      ],
      "name": "initialize",
      "outputs": [],
      "stateMutability": "nonpayable",
      "type": "function"
    },
    {
      "inputs": [],
      "name": "interchainSecurityModule",
      "outputs": [
        {
          "internalType": "contract IInterchainSecurityModule",
          "name": "",
          "type": "address"
        }
      ],
      "stateMutability": "view",
      "type": "function"
    },
    {
      "inputs": [],
      "name": "localDomain",
      "outputs": [
        {
          "internalType": "uint32",
          "name": "",
          "type": "uint32"
        }
      ],
      "stateMutability": "view",
      "type": "function"
    },
    {
      "inputs": [],
      "name": "mailbox",
      "outputs": [
        {
          "internalType": "contract IMailbox",
          "name": "",
          "type": "address"
        }
      ],
      "stateMutability": "view",
      "type": "function"
    },
    {
      "inputs": [],
      "name": "name",
      "outputs": [
        {
          "internalType": "string",
          "name": "",
          "type": "string"
        }
      ],
      "stateMutability": "view",
      "type": "function"
    },
    {
      "inputs": [],
      "name": "owner",
      "outputs": [
        {
          "internalType": "address",
          "name": "",
          "type": "address"
        }
      ],
      "stateMutability": "view",
      "type": "function"
    },
    {
      "inputs": [
        {
          "internalType": "uint32",
          "name": "_destinationDomain",
          "type": "uint32"
        }
      ],
      "name": "quoteGasPayment",
      "outputs": [
        {
          "internalType": "uint256",
          "name": "",
          "type": "uint256"
        }
      ],
      "stateMutability": "view",
      "type": "function"
    },
    {
      "inputs": [
        {
          "internalType": "uint32",
          "name": "_destination",
          "type": "uint32"
        },
        {
          "internalType": "bytes32",
          "name": "_recipient",
          "type": "bytes32"
        },
        {
          "internalType": "uint256",
          "name": "_amount",
          "type": "uint256"
        }
      ],
      "name": "quoteTransferRemote",
      "outputs": [
        {
          "components": [
            {
              "internalType": "address",
              "name": "token",
              "type": "address"
            },
            {
              "internalType": "uint256",
              "name": "amount",
              "type": "uint256"
            }
          ],
          "internalType": "struct Quote[]",
          "name": "quotes",
          "type": "tuple[]"
        }
      ],
      "stateMutability": "view",
      "type": "function"
    },
    {
      "inputs": [],
      "name": "renounceOwnership",
      "outputs": [],
      "stateMutability": "nonpayable",
      "type": "function"
    },
    {
      "inputs": [
        {
          "internalType": "uint32",
          "name": "_domain",
          "type": "uint32"
        }
      ],
      "name": "routers",
      "outputs": [
        {
          "internalType": "bytes32",
          "name": "",
          "type": "bytes32"
        }
      ],
      "stateMutability": "view",
      "type": "function"
    },
    {
      "inputs": [],
      "name": "scale",
      "outputs": [
        {
          "internalType": "uint256",
          "name": "",
          "type": "uint256"
        }
      ],
      "stateMutability": "view",
      "type": "function"
    },
    {
      "inputs": [
        {
          "internalType": "uint32",
          "name": "domain",
          "type": "uint32"
        },
        {
          "internalType": "uint256",
          "name": "gas",
          "type": "uint256"
        }
      ],
      "name": "setDestinationGas",
      "outputs": [],
      "stateMutability": "nonpayable",
      "type": "function"
    },
    {
      "inputs": [
        {
          "components": [
            {
              "internalType": "uint32",
              "name": "domain",
              "type": "uint32"
            },
            {
              "internalType": "uint256",
              "name": "gas",
              "type": "uint256"
            }
          ],
          "internalType": "struct GasRouter.GasRouterConfig[]",
          "name": "gasConfigs",
          "type": "tuple[]"
        }
      ],
      "name": "setDestinationGas",
      "outputs": [],
      "stateMutability": "nonpayable",
      "type": "function"
    },
    {
      "inputs": [
        {
          "internalType": "address",
          "name": "recipient",
          "type": "address"
        }
      ],
      "name": "setFeeRecipient",
      "outputs": [],
      "stateMutability": "nonpayable",
      "type": "function"
    },
    {
      "inputs": [
        {
          "internalType": "address",
          "name": "_hook",
          "type": "address"
        }
      ],
      "name": "setHook",
      "outputs": [],
      "stateMutability": "nonpayable",
      "type": "function"
    },
    {
      "inputs": [
        {
          "internalType": "address",
          "name": "_module",
          "type": "address"
        }
      ],
      "name": "setInterchainSecurityModule",
      "outputs": [],
      "stateMutability": "nonpayable",
      "type": "function"
    },
    {
      "inputs": [],
      "name": "symbol",
      "outputs": [
        {
          "internalType": "string",
          "name": "",
          "type": "string"
        }
      ],
      "stateMutability": "view",
      "type": "function"
    },
    {
      "inputs": [],
      "name": "token",
      "outputs": [
        {
          "internalType": "address",
          "name": "",
          "type": "address"
        }
      ],
      "stateMutability": "view",
      "type": "function"
    },
    {
      "inputs": [],
      "name": "totalSupply",
      "outputs": [
        {
          "internalType": "uint256",
          "name": "",
          "type": "uint256"
        }
      ],
      "stateMutability": "view",
      "type": "function"
    },
    {
      "inputs": [
        {
          "internalType": "address",
          "name": "to",
          "type": "address"
        },
        {
          "internalType": "uint256",
          "name": "amount",
          "type": "uint256"
        }
      ],
      "name": "transfer",
      "outputs": [
        {
          "internalType": "bool",
          "name": "",
          "type": "bool"
        }
      ],
      "stateMutability": "nonpayable",
      "type": "function"
    },
    {
      "inputs": [
        {
          "internalType": "address",
          "name": "from",
          "type": "address"
        },
        {
          "internalType": "address",
          "name": "to",
          "type": "address"
        },
        {
          "internalType": "uint256",
          "name": "amount",
          "type": "uint256"
        }
      ],
      "name": "transferFrom",
      "outputs": [
        {
          "internalType": "bool",
          "name": "",
          "type": "bool"
        }
      ],
      "stateMutability": "nonpayable",
      "type": "function"
    },
    {
      "inputs": [
        {
          "internalType": "address",
          "name": "newOwner",
          "type": "address"
        }
      ],
      "name": "transferOwnership",
      "outputs": [],
      "stateMutability": "nonpayable",
      "type": "function"
    },
    {
      "inputs": [
        {
          "internalType": "uint32",
          "name": "_destination",
          "type": "uint32"
        },
        {
          "internalType": "bytes32",
          "name": "_recipient",
          "type": "bytes32"
        },
        {
          "internalType": "uint256",
          "name": "_amount",
          "type": "uint256"
        }
      ],
      "name": "transferRemote",
      "outputs": [
        {
          "internalType": "bytes32",
          "name": "messageId",
          "type": "bytes32"
        }
      ],
      "stateMutability": "payable",
      "type": "function"
    },
    {
      "inputs": [
        {
          "internalType": "uint32",
          "name": "_domain",
          "type": "uint32"
        }
      ],
      "name": "unenrollRemoteRouter",
      "outputs": [],
      "stateMutability": "nonpayable",
      "type": "function"
    },
    {
      "inputs": [
        {
          "internalType": "uint32[]",
          "name": "_domains",
          "type": "uint32[]"
        }
      ],
      "name": "unenrollRemoteRouters",
      "outputs": [],
      "stateMutability": "nonpayable",
      "type": "function"
    }
  ],
  "bytecode": "0x6101006040523480156200001257600080fd5b5060405162003ea638038062003ea6833981016040819052620000359162000187565b8181808080806001600160a01b0381163b620000975760405162461bcd60e51b815260206004820152601e60248201527f4d61696c626f78436c69656e743a20696e76616c6964206d61696c626f780000604482015260640160405180910390fd5b6001600160a01b03821660808190526040805163234d8e3d60e21b81529051638d3638f4916004808201926020929091908290030181865afa158015620000e2573d6000803e3d6000fd5b505050506040513d601f19601f82011682018060405250810190620001089190620001df565b63ffffffff1660a0526200011c3362000135565b50505060c0929092525050505060ff1660e0526200020e565b606580546001600160a01b038381166001600160a01b0319831681179093556040519116919082907f8be0079c531659141344cd1fd0a4f28419497f9722a3daafe3b4186f6b6457e090600090a35050565b6000806000606084860312156200019d57600080fd5b835160ff81168114620001af57600080fd5b6020850151604086015191945092506001600160a01b0381168114620001d457600080fd5b809150509250925092565b600060208284031215620001f257600080fd5b815163ffffffff811681146200020757600080fd5b9392505050565b60805160a05160c05160e051613c3b6200026b60003960006103950152600081816108a701528181611f3a01526127a4015260006105e301526000818161073501528181610ce50152818161253401526128030152613c3b6000f3fe6080604052600436106102a05760003560e01c80638bd90b821161016e578063dd62ed3e116100cb578063efae508a1161007f578063f2fde38b11610064578063f2fde38b14610875578063f51e181a14610895578063fc0c546a146108c957600080fd5b8063efae508a14610835578063f2ed8c531461085557600080fd5b8063e74b981b116100b0578063e74b981b146107d5578063e80a7c79146107f5578063e9198bf91461081557600080fd5b8063dd62ed3e14610757578063de523cf3146107aa57600080fd5b8063a457c2d711610122578063b1bd643611610107578063b1bd6436146106e3578063b49c53a714610703578063d5438eae1461072357600080fd5b8063a457c2d7146106a3578063a9059cbb146106c357600080fd5b80638da5cb5b116101535780638da5cb5b1461061a57806393c448471461064557806395d89b411461068e57600080fd5b80638bd90b82146105a45780638d3638f4146105d157600080fd5b8063440df4f41161021c578063715018a6116101d0578063775313a1116101b5578063775313a1146105375780637f5a7c7b1461056457806381b4e8b41461059157600080fd5b8063715018a61461050257806371a15b381461051757600080fd5b806349d462ef1161020157806349d462ef1461048c57806356d5d475146104ac57806370a08231146104bf57600080fd5b8063440df4f4146103ff578063469048401461042157600080fd5b806323b872dd11610273578063313ce56711610258578063313ce5671461038157806339509351146103bf5780633dfd3873146103df57600080fd5b806323b872dd146103415780632ead72f61461036157600080fd5b806306fdde03146102a5578063095ea7b3146102d05780630e72cc061461030057806318160ddd14610322575b600080fd5b3480156102b157600080fd5b506102ba6108dc565b6040516102c791906130ca565b60405180910390f35b3480156102dc57600080fd5b506102f06102eb3660046130ff565b61096e565b60405190151581526020016102c7565b34801561030c57600080fd5b5061032061031b36600461312b565b610988565b005b34801561032e57600080fd5b506035545b6040519081526020016102c7565b34801561034d57600080fd5b506102f061035c366004613148565b610ad6565b34801561036d57600080fd5b5061033361037c3660046131a2565b610afa565b34801561038d57600080fd5b5060405160ff7f00000000000000000000000000000000000000000000000000000000000000001681526020016102c7565b3480156103cb57600080fd5b506102f06103da3660046130ff565b610b19565b3480156103eb57600080fd5b506103206103fa36600461312b565b610b65565b34801561040b57600080fd5b50610414610ca6565b6040516102c791906131bd565b34801561042d57600080fd5b507f721d42344eebce0a76684e8fddd9c81a84afda39f3019e5a078a53853f098d115473ffffffffffffffffffffffffffffffffffffffff165b60405173ffffffffffffffffffffffffffffffffffffffff90911681526020016102c7565b34801561049857600080fd5b506103206104a7366004613207565b610cb7565b6103206104ba366004613223565b610ccd565b3480156104cb57600080fd5b506103336104da36600461312b565b73ffffffffffffffffffffffffffffffffffffffff1660009081526033602052604090205490565b34801561050e57600080fd5b50610320610e41565b34801561052357600080fd5b506103206105323660046132ef565b610e55565b34801561054357600080fd5b506103336105523660046131a2565b60fc6020526000908152604090205481565b34801561057057600080fd5b506097546104679073ffffffffffffffffffffffffffffffffffffffff1681565b61033361059f366004613331565b610eb0565b3480156105b057600080fd5b506105c46105bf366004613331565b610f0a565b6040516102c79190613364565b3480156105dd57600080fd5b506106057f000000000000000000000000000000000000000000000000000000000000000081565b60405163ffffffff90911681526020016102c7565b34801561062657600080fd5b5060655473ffffffffffffffffffffffffffffffffffffffff16610467565b34801561065157600080fd5b506102ba6040518060400160405280600681526020017f31302e302e32000000000000000000000000000000000000000000000000000081525081565b34801561069a57600080fd5b506102ba61105f565b3480156106af57600080fd5b506102f06106be3660046130ff565b61106e565b3480156106cf57600080fd5b506102f06106de3660046130ff565b61113f565b3480156106ef57600080fd5b506103206106fe3660046133c9565b61114d565b34801561070f57600080fd5b5061032061071e366004613207565b6111c3565b34801561072f57600080fd5b506104677f000000000000000000000000000000000000000000000000000000000000000081565b34801561076357600080fd5b5061033361077236600461343e565b73ffffffffffffffffffffffffffffffffffffffff918216600090815260346020908152604080832093909416825291909152205490565b3480156107b657600080fd5b5060985473ffffffffffffffffffffffffffffffffffffffff16610467565b3480156107e157600080fd5b506103206107f036600461312b565b6111d5565b34801561080157600080fd5b506103206108103660046135ac565b6112f5565b34801561082157600080fd5b50610320610830366004613652565b6114a4565b34801561084157600080fd5b506103206108503660046131a2565b611583565b34801561086157600080fd5b506103336108703660046131a2565b611597565b34801561088157600080fd5b5061032061089036600461312b565b6115d4565b3480156108a157600080fd5b506103337f000000000000000000000000000000000000000000000000000000000000000081565b3480156108d557600080fd5b5030610467565b6060603680546108eb906136be565b80601f0160208091040260200160405190810160405280929190818152602001828054610917906136be565b80156109645780601f1061093957610100808354040283529160200191610964565b820191906000526020600020905b81548152906001019060200180831161094757829003601f168201915b5050505050905090565b60003361097c818585611688565b60019150505b92915050565b8073ffffffffffffffffffffffffffffffffffffffff81163b1515806109c2575073ffffffffffffffffffffffffffffffffffffffff8116155b610a53576040517f08c379a000000000000000000000000000000000000000000000000000000000815260206004820152602760248201527f4d61696c626f78436c69656e743a20696e76616c696420636f6e74726163742060448201527f73657474696e670000000000000000000000000000000000000000000000000060648201526084015b60405180910390fd5b610a5b61183b565b609880547fffffffffffffffffffffffff00000000000000000000000000000000000000001673ffffffffffffffffffffffffffffffffffffffff84169081179091556040519081527fc47cbcc588c67679e52261c45cc315e56562f8d0ccaba16facb9093ff9498799906020015b60405180910390a15050565b600033610ae48582856118bc565b610aef85858561198d565b506001949350505050565b600080610b1160c963ffffffff80861690611c0316565b949350505050565b33600081815260346020908152604080832073ffffffffffffffffffffffffffffffffffffffff8716845290915281205490919061097c9082908690610b60908790613740565b611688565b8073ffffffffffffffffffffffffffffffffffffffff81163b151580610b9f575073ffffffffffffffffffffffffffffffffffffffff8116155b610c2b576040517f08c379a000000000000000000000000000000000000000000000000000000000815260206004820152602760248201527f4d61696c626f78436c69656e743a20696e76616c696420636f6e74726163742060448201527f73657474696e67000000000000000000000000000000000000000000000000006064820152608401610a4a565b610c3361183b565b609780547fffffffffffffffffffffffff00000000000000000000000000000000000000001673ffffffffffffffffffffffffffffffffffffffff84169081179091556040519081527f4eab7b127c764308788622363ad3e9532de3dfba7845bd4f84c125a22544255a90602001610aca565b6060610cb260c9611c1c565b905090565b610cbf61183b565b610cc98282611ccd565b5050565b3373ffffffffffffffffffffffffffffffffffffffff7f00000000000000000000000000000000000000000000000000000000000000001614610d92576040517f08c379a000000000000000000000000000000000000000000000000000000000815260206004820152602160248201527f4d61696c626f78436c69656e743a2073656e646572206e6f74206d61696c626f60448201527f78000000000000000000000000000000000000000000000000000000000000006064820152608401610a4a565b6000610d9d85611d1b565b9050838114610e2e576040517f08c379a000000000000000000000000000000000000000000000000000000000815260206004820152602560248201527f456e726f6c6c656420726f7574657220646f6573206e6f74206d61746368207360448201527f656e6465720000000000000000000000000000000000000000000000000000006064820152608401610a4a565b610e3a85858585611d80565b5050505050565b610e4961183b565b610e536000611df7565b565b610e5d61183b565b8060005b81811015610eaa57610e98848483818110610e7e57610e7e613753565b9050602002016020810190610e9391906131a2565b611e6e565b610ea3600182613740565b9050610e61565b50505050565b600080610ebf85858534611ec3565b9150506000610ecd84611f33565b60408051602081018890528082018390528151808203830181526060909101909152909150610eff8787848685611f5f565b979650505050505050565b60408051600380825260808201909252606091816020015b6040805180820190915260008082526020820152815260200190600190039081610f225790505090506040518060400160405280600073ffffffffffffffffffffffffffffffffffffffff168152602001610f7e868686611fd9565b81525081600081518110610f9457610f94613753565b60200260200101819052506000610fac85858561200d565b9150506040518060400160405280610fc13090565b73ffffffffffffffffffffffffffffffffffffffff168152602001610fe68386613740565b81525082600181518110610ffc57610ffc613753565b602002602001018190525060405180604001604052806110193090565b73ffffffffffffffffffffffffffffffffffffffff16815260200160008152508260028151811061104c5761104c613753565b6020026020010181905250509392505050565b6060603780546108eb906136be565b33600081815260346020908152604080832073ffffffffffffffffffffffffffffffffffffffff8716845290915281205490919083811015611132576040517f08c379a000000000000000000000000000000000000000000000000000000000815260206004820152602560248201527f45524332303a2064656372656173656420616c6c6f77616e63652062656c6f7760448201527f207a65726f0000000000000000000000000000000000000000000000000000006064820152608401610a4a565b610aef8286868403611688565b60003361097c81858561198d565b61115561183b565b60005b818110156111be576111ac83838381811061117557611175613753565b61118b92602060409092020190810191506131a2565b84848481811061119d5761119d613753565b90506040020160200135611ccd565b6111b7600182613740565b9050611158565b505050565b6111cb61183b565b610cc98282612260565b6111dd61183b565b3073ffffffffffffffffffffffffffffffffffffffff82160361125c576040517f08c379a000000000000000000000000000000000000000000000000000000000815260206004820152601c60248201527f46656520726563697069656e742063616e6e6f742062652073656c66000000006044820152606401610a4a565b807f721d42344eebce0a76684e8fddd9c81a84afda39f3019e5a078a53853f098d1180547fffffffffffffffffffffffff00000000000000000000000000000000000000001673ffffffffffffffffffffffffffffffffffffffff92831617905560405190821681527fbf9a9534339a9d6b81696e05dcfb614b7dc518a31d48be3cfb757988381fb3239060200160405180910390a150565b600054610100900460ff16158080156113155750600054600160ff909116105b8061132f5750303b15801561132f575060005460ff166001145b6113bb576040517f08c379a000000000000000000000000000000000000000000000000000000000815260206004820152602e60248201527f496e697469616c697a61626c653a20636f6e747261637420697320616c72656160448201527f647920696e697469616c697a65640000000000000000000000000000000000006064820152608401610a4a565b600080547fffffffffffffffffffffffffffffffffffffffffffffffffffffffffffffff00166001179055801561141957600080547fffffffffffffffffffffffffffffffffffffffffffffffffffffffffffff00ff166101001790555b6114238686612276565b61142d3388612317565b61143884848461240c565b801561149b57600080547fffffffffffffffffffffffffffffffffffffffffffffffffffffffffffff00ff169055604051600181527f7f26b83ff96e1f2b6a682f133852f6798a09c465da95921460cefb38474024989060200160405180910390a15b50505050505050565b6114ac61183b565b828114611515576040517f08c379a000000000000000000000000000000000000000000000000000000000815260206004820152600760248201527f216c656e677468000000000000000000000000000000000000000000000000006044820152606401610a4a565b8260005b8181101561157b5761156986868381811061153657611536613753565b905060200201602081019061154b91906131a2565b85858481811061155d5761155d613753565b90506020020135612260565b611574600182613740565b9050611519565b505050505050565b61158b61183b565b61159481611e6e565b50565b600061098282604051806020016040528060008152506115b6856124c6565b60975473ffffffffffffffffffffffffffffffffffffffff166124e8565b6115dc61183b565b73ffffffffffffffffffffffffffffffffffffffff811661167f576040517f08c379a000000000000000000000000000000000000000000000000000000000815260206004820152602660248201527f4f776e61626c653a206e6577206f776e657220697320746865207a65726f206160448201527f64647265737300000000000000000000000000000000000000000000000000006064820152608401610a4a565b61159481611df7565b73ffffffffffffffffffffffffffffffffffffffff831661172a576040517f08c379a0000000000000000000000000000000000000000000000000000000008152602060048201526024808201527f45524332303a20617070726f76652066726f6d20746865207a65726f2061646460448201527f72657373000000000000000000000000000000000000000000000000000000006064820152608401610a4a565b73ffffffffffffffffffffffffffffffffffffffff82166117cd576040517f08c379a000000000000000000000000000000000000000000000000000000000815260206004820152602260248201527f45524332303a20617070726f766520746f20746865207a65726f20616464726560448201527f73730000000000000000000000000000000000000000000000000000000000006064820152608401610a4a565b73ffffffffffffffffffffffffffffffffffffffff83811660008181526034602090815260408083209487168084529482529182902085905590518481527f8c5be1e5ebec7d5bd14f71427d1e84f3dd0314c0f7b2291e5b200ac8c7c3b925910160405180910390a3505050565b60655473ffffffffffffffffffffffffffffffffffffffff163314610e53576040517f08c379a000000000000000000000000000000000000000000000000000000000815260206004820181905260248201527f4f776e61626c653a2063616c6c6572206973206e6f7420746865206f776e65726044820152606401610a4a565b73ffffffffffffffffffffffffffffffffffffffff8381166000908152603460209081526040808320938616835292905220547fffffffffffffffffffffffffffffffffffffffffffffffffffffffffffffffff8114610eaa5781811015611980576040517f08c379a000000000000000000000000000000000000000000000000000000000815260206004820152601d60248201527f45524332303a20696e73756666696369656e7420616c6c6f77616e63650000006044820152606401610a4a565b610eaa8484848403611688565b73ffffffffffffffffffffffffffffffffffffffff8316611a30576040517f08c379a000000000000000000000000000000000000000000000000000000000815260206004820152602560248201527f45524332303a207472616e736665722066726f6d20746865207a65726f20616460448201527f64726573730000000000000000000000000000000000000000000000000000006064820152608401610a4a565b73ffffffffffffffffffffffffffffffffffffffff8216611ad3576040517f08c379a000000000000000000000000000000000000000000000000000000000815260206004820152602360248201527f45524332303a207472616e7366657220746f20746865207a65726f206164647260448201527f65737300000000000000000000000000000000000000000000000000000000006064820152608401610a4a565b73ffffffffffffffffffffffffffffffffffffffff831660009081526033602052604090205481811015611b89576040517f08c379a000000000000000000000000000000000000000000000000000000000815260206004820152602660248201527f45524332303a207472616e7366657220616d6f756e742065786365656473206260448201527f616c616e636500000000000000000000000000000000000000000000000000006064820152608401610a4a565b73ffffffffffffffffffffffffffffffffffffffff80851660008181526033602052604080822086860390559286168082529083902080548601905591517fddf252ad1be2c89b69c2b068fc378daa952ba7f163c4a11628f55a4df523b3ef90611bf69086815260200190565b60405180910390a3610eaa565b600080611c1084846125b2565b915091505b9250929050565b60606000611c29836125ec565b9050805167ffffffffffffffff811115611c4557611c45613477565b604051908082528060200260200182016040528015611c6e578160200160208202803683370190505b50915060005b8151811015611cc657818181518110611c8f57611c8f613753565b6020026020010151838281518110611ca957611ca9613753565b63ffffffff90921660209283029190910190910152600101611c74565b5050919050565b63ffffffff8216600081815260fc6020908152604091829020849055815192835282018390527fc3de732a98b24a2b5c6f67e8a7fb057ffc14046b83968a2c73e4148d2fba978b9101610aca565b60008080611d3360c963ffffffff80871690611c0316565b915091508115611d44579392505050565b611d4d8461267d565b6040517f08c379a0000000000000000000000000000000000000000000000000000000008152600401610a4a91906130ca565b6000611d8c83836126b4565b90506000611d9a84846126e4565b9050818663ffffffff167fba20947a325f450d232530e5f5fce293e7963499d5309a07cee84a269f2f15a683604051611dd591815260200190565b60405180910390a361157b611de9836126f4565b611df28361279d565b6127c9565b6065805473ffffffffffffffffffffffffffffffffffffffff8381167fffffffffffffffffffffffff0000000000000000000000000000000000000000831681179093556040519116919082907f8be0079c531659141344cd1fd0a4f28419497f9722a3daafe3b4186f6b6457e090600090a35050565b611e8260c963ffffffff808416906127d316565b611e8b8261267d565b90610cc9576040517f08c379a0000000000000000000000000000000000000000000000000000000008152600401610a4a91906130ca565b600080600080611ed488888861200d565b909250905060009350600084611eea8389613740565b611ef49190613740565b9050611eff816127df565b8115611f0f57611f0f83836127e9565b30611f2357611f1e8187613782565b611f25565b855b935050505094509492505050565b60006109827f000000000000000000000000000000000000000000000000000000000000000083613795565b6000848663ffffffff167fd229aacb94204188fe8042965fa6b269c62dc5818b21238779ab64bdd17efeec86604051611f9a91815260200190565b60405180910390a3611fcf868484611fb18a6124c6565b60975473ffffffffffffffffffffffffffffffffffffffff166127f3565b9695505050505050565b60408051602081018490528082018390528151808203830181526060909101909152600090610b119085906115b6876124c6565b60008061204e7f721d42344eebce0a76684e8fddd9c81a84afda39f3019e5a078a53853f098d115473ffffffffffffffffffffffffffffffffffffffff1690565b915073ffffffffffffffffffffffffffffffffffffffff821661207357506000612258565b6040517f8bd90b8200000000000000000000000000000000000000000000000000000000815263ffffffff86166004820152602481018590526044810184905260009073ffffffffffffffffffffffffffffffffffffffff841690638bd90b8290606401600060405180830381865afa1580156120f4573d6000803e3d6000fd5b505050506040513d6000823e601f3d9081017fffffffffffffffffffffffffffffffffffffffffffffffffffffffffffffffe016820160405261213a91908101906137ac565b9050805160000361214f575060009050612258565b805160011480156121a957503073ffffffffffffffffffffffffffffffffffffffff168160008151811061218557612185613753565b60200260200101516000015173ffffffffffffffffffffffffffffffffffffffff16145b612235576040517f08c379a000000000000000000000000000000000000000000000000000000000815260206004820152602960248201527f46756e6769626c65546f6b656e526f757465723a20666565206d757374206d6160448201527f74636820746f6b656e00000000000000000000000000000000000000000000006064820152608401610a4a565b8060008151811061224857612248613753565b6020026020010151602001519150505b935093915050565b610cc960c963ffffffff8085169084906128a616565b600054610100900460ff1661230d576040517f08c379a000000000000000000000000000000000000000000000000000000000815260206004820152602b60248201527f496e697469616c697a61626c653a20636f6e7472616374206973206e6f74206960448201527f6e697469616c697a696e670000000000000000000000000000000000000000006064820152608401610a4a565b610cc982826128b1565b73ffffffffffffffffffffffffffffffffffffffff8216612394576040517f08c379a000000000000000000000000000000000000000000000000000000000815260206004820152601f60248201527f45524332303a206d696e7420746f20746865207a65726f2061646472657373006044820152606401610a4a565b80603560008282546123a69190613740565b909155505073ffffffffffffffffffffffffffffffffffffffff82166000818152603360209081526040808320805486019055518481527fddf252ad1be2c89b69c2b068fc378daa952ba7f163c4a11628f55a4df523b3ef910160405180910390a35050565b600054610100900460ff166124a3576040517f08c379a000000000000000000000000000000000000000000000000000000000815260206004820152602b60248201527f496e697469616c697a61626c653a20636f6e7472616374206973206e6f74206960448201527f6e697469616c697a696e670000000000000000000000000000000000000000006064820152608401610a4a565b6124ab612961565b6124b483610b65565b6124bd82610988565b6111be81611df7565b63ffffffff8116600090815260fc602052604090205460609061098290612a00565b6000806124f486611d1b565b6040517f81d2ea9500000000000000000000000000000000000000000000000000000000815290915073ffffffffffffffffffffffffffffffffffffffff7f000000000000000000000000000000000000000000000000000000000000000016906381d2ea959061257190899085908a908a908a90600401613877565b602060405180830381865afa15801561258e573d6000803e3d6000fd5b505050506040513d601f19601f82011682018060405250810190611fcf91906138d7565b60008181526002830160205260408120548190806125e1576125d48585612a1e565b925060009150611c159050565b600192509050611c15565b606060006125f983612a2a565b90508067ffffffffffffffff81111561261457612614613477565b60405190808252806020026020018201604052801561263d578160200160208202803683370190505b50915060005b81811015611cc6576126558482612a35565b60001c83828151811061266a5761266a613753565b6020908102919091010152600101612643565b606061268e8263ffffffff16612a41565b60405160200161269e91906138f0565b6040516020818303038152906040529050919050565b60008281836126c4826020613935565b60ff16926126d49392919061394e565b6126dd91613978565b9392505050565b6000826020836126c48280613935565b600073ffffffffffffffffffffffffffffffffffffffff821115612799576040517f08c379a0000000000000000000000000000000000000000000000000000000008152602060048201526024808201527f5479706543617374733a2062797465733332546f41646472657373206f76657260448201527f666c6f77000000000000000000000000000000000000000000000000000000006064820152608401610a4a565b5090565b60006109827f0000000000000000000000000000000000000000000000000000000000000000836139b4565b610cc98282612317565b60006126dd8383612aff565b6115943382612b1c565b610cc982826127c9565b6000806127ff87611d1b565b90507f000000000000000000000000000000000000000000000000000000000000000073ffffffffffffffffffffffffffffffffffffffff166310b83dc08789848989896040518763ffffffff1660e01b8152600401612863959493929190613877565b60206040518083038185885af1158015612881573d6000803e3d6000fd5b50505050506040513d601f19601f82011682018060405250810190610eff91906138d7565b610eaa838383612ce2565b600054610100900460ff16612948576040517f08c379a000000000000000000000000000000000000000000000000000000000815260206004820152602b60248201527f496e697469616c697a61626c653a20636f6e7472616374206973206e6f74206960448201527f6e697469616c697a696e670000000000000000000000000000000000000000006064820152608401610a4a565b60366129548382613a37565b5060376111be8282613a37565b600054610100900460ff166129f8576040517f08c379a000000000000000000000000000000000000000000000000000000000815260206004820152602b60248201527f496e697469616c697a61626c653a20636f6e7472616374206973206e6f74206960448201527f6e697469616c697a696e670000000000000000000000000000000000000000006064820152608401610a4a565b610e53612cff565b60606109826000833360405180602001604052806000815250612d9f565b60006126dd8383612dd4565b600061098282612dec565b60006126dd8383612df6565b60606000612a4e83612e20565b600101905060008167ffffffffffffffff811115612a6e57612a6e613477565b6040519080825280601f01601f191660200182016040528015612a98576020820181803683370190505b5090508181016020015b7fffffffffffffffffffffffffffffffffffffffffffffffffffffffffffffffff017f3031323334353637383961626364656600000000000000000000000000000000600a86061a8153600a8504945084612aa257509392505050565b600081815260028301602052604081208190556126dd8383612f02565b73ffffffffffffffffffffffffffffffffffffffff8216612bbf576040517f08c379a000000000000000000000000000000000000000000000000000000000815260206004820152602160248201527f45524332303a206275726e2066726f6d20746865207a65726f2061646472657360448201527f73000000000000000000000000000000000000000000000000000000000000006064820152608401610a4a565b73ffffffffffffffffffffffffffffffffffffffff821660009081526033602052604090205481811015612c75576040517f08c379a000000000000000000000000000000000000000000000000000000000815260206004820152602260248201527f45524332303a206275726e20616d6f756e7420657863656564732062616c616e60448201527f63650000000000000000000000000000000000000000000000000000000000006064820152608401610a4a565b73ffffffffffffffffffffffffffffffffffffffff831660008181526033602090815260408083208686039055603580548790039055518581529192917fddf252ad1be2c89b69c2b068fc378daa952ba7f163c4a11628f55a4df523b3ef910160405180910390a3505050565b60008281526002840160205260408120829055610b118484612f0e565b600054610100900460ff16612d96576040517f08c379a000000000000000000000000000000000000000000000000000000000815260206004820152602b60248201527f496e697469616c697a61626c653a20636f6e7472616374206973206e6f74206960448201527f6e697469616c697a696e670000000000000000000000000000000000000000006064820152608401610a4a565b610e5333611df7565b6060600185858585604051602001612dbb959493929190613b51565b6040516020818303038152906040529050949350505050565b600081815260018301602052604081205415156126dd565b6000610982825490565b6000826000018281548110612e0d57612e0d613753565b9060005260206000200154905092915050565b6000807a184f03e93ff9f4daa797ed6e38ed64bf6a1f0100000000000000008310612e69577a184f03e93ff9f4daa797ed6e38ed64bf6a1f010000000000000000830492506040015b6d04ee2d6d415b85acef81000000008310612e95576d04ee2d6d415b85acef8100000000830492506020015b662386f26fc100008310612eb357662386f26fc10000830492506010015b6305f5e1008310612ecb576305f5e100830492506008015b6127108310612edf57612710830492506004015b60648310612ef1576064830492506002015b600a83106109825760010192915050565b60006126dd8383612f1a565b60006126dd838361300d565b60008181526001830160205260408120548015613003576000612f3e600183613782565b8554909150600090612f5290600190613782565b9050818114612fb7576000866000018281548110612f7257612f72613753565b9060005260206000200154905080876000018481548110612f9557612f95613753565b6000918252602080832090910192909255918252600188019052604090208390555b8554869080612fc857612fc8613bd6565b600190038181906000526020600020016000905590558560010160008681526020019081526020016000206000905560019350505050610982565b6000915050610982565b600081815260018301602052604081205461305457508154600181810184556000848152602080822090930184905584548482528286019093526040902091909155610982565b506000610982565b60005b8381101561307757818101518382015260200161305f565b50506000910152565b6000815180845261309881602086016020860161305c565b601f017fffffffffffffffffffffffffffffffffffffffffffffffffffffffffffffffe0169290920160200192915050565b6020815260006126dd6020830184613080565b73ffffffffffffffffffffffffffffffffffffffff8116811461159457600080fd5b6000806040838503121561311257600080fd5b823561311d816130dd565b946020939093013593505050565b60006020828403121561313d57600080fd5b81356126dd816130dd565b60008060006060848603121561315d57600080fd5b8335613168816130dd565b92506020840135613178816130dd565b929592945050506040919091013590565b803563ffffffff8116811461319d57600080fd5b919050565b6000602082840312156131b457600080fd5b6126dd82613189565b6020808252825182820181905260009190848201906040850190845b818110156131fb57835163ffffffff16835292840192918401916001016131d9565b50909695505050505050565b6000806040838503121561321a57600080fd5b61311d83613189565b6000806000806060858703121561323957600080fd5b61324285613189565b935060208501359250604085013567ffffffffffffffff8082111561326657600080fd5b818701915087601f83011261327a57600080fd5b81358181111561328957600080fd5b88602082850101111561329b57600080fd5b95989497505060200194505050565b60008083601f8401126132bc57600080fd5b50813567ffffffffffffffff8111156132d457600080fd5b6020830191508360208260051b8501011115611c1557600080fd5b6000806020838503121561330257600080fd5b823567ffffffffffffffff81111561331957600080fd5b613325858286016132aa565b90969095509350505050565b60008060006060848603121561334657600080fd5b61334f84613189565b95602085013595506040909401359392505050565b602080825282518282018190526000919060409081850190868401855b828110156133bc578151805173ffffffffffffffffffffffffffffffffffffffff168552860151868501529284019290850190600101613381565b5091979650505050505050565b600080602083850312156133dc57600080fd5b823567ffffffffffffffff808211156133f457600080fd5b818501915085601f83011261340857600080fd5b81358181111561341757600080fd5b8660208260061b850101111561342c57600080fd5b60209290920196919550909350505050565b6000806040838503121561345157600080fd5b823561345c816130dd565b9150602083013561346c816130dd565b809150509250929050565b7f4e487b7100000000000000000000000000000000000000000000000000000000600052604160045260246000fd5b6040805190810167ffffffffffffffff811182821017156134c9576134c9613477565b60405290565b604051601f82017fffffffffffffffffffffffffffffffffffffffffffffffffffffffffffffffe016810167ffffffffffffffff8111828210171561351657613516613477565b604052919050565b600082601f83011261352f57600080fd5b813567ffffffffffffffff81111561354957613549613477565b61357a60207fffffffffffffffffffffffffffffffffffffffffffffffffffffffffffffffe0601f840116016134cf565b81815284602083860101111561358f57600080fd5b816020850160208301376000918101602001919091529392505050565b60008060008060008060c087890312156135c557600080fd5b86359550602087013567ffffffffffffffff808211156135e457600080fd5b6135f08a838b0161351e565b9650604089013591508082111561360657600080fd5b5061361389828a0161351e565b9450506060870135613624816130dd565b92506080870135613634816130dd565b915060a0870135613644816130dd565b809150509295509295509295565b6000806000806040858703121561366857600080fd5b843567ffffffffffffffff8082111561368057600080fd5b61368c888389016132aa565b909650945060208701359150808211156136a557600080fd5b506136b2878288016132aa565b95989497509550505050565b600181811c908216806136d257607f821691505b60208210810361370b577f4e487b7100000000000000000000000000000000000000000000000000000000600052602260045260246000fd5b50919050565b7f4e487b7100000000000000000000000000000000000000000000000000000000600052601160045260246000fd5b8082018082111561098257610982613711565b7f4e487b7100000000000000000000000000000000000000000000000000000000600052603260045260246000fd5b8181038181111561098257610982613711565b808202811582820484141761098257610982613711565b600060208083850312156137bf57600080fd5b825167ffffffffffffffff808211156137d757600080fd5b818501915085601f8301126137eb57600080fd5b8151818111156137fd576137fd613477565b61380b848260051b016134cf565b818152848101925060069190911b83018401908782111561382b57600080fd5b928401925b81841015610eff57604084890312156138495760008081fd5b6138516134a6565b845161385c816130dd565b81528486015186820152835260409093019291840191613830565b63ffffffff8616815284602082015260a06040820152600061389c60a0830186613080565b82810360608401526138ae8186613080565b91505073ffffffffffffffffffffffffffffffffffffffff831660808301529695505050505050565b6000602082840312156138e957600080fd5b5051919050565b7f4e6f20726f7574657220656e726f6c6c656420666f7220646f6d61696e3a200081526000825161392881601f85016020870161305c565b91909101601f0192915050565b60ff818116838216019081111561098257610982613711565b6000808585111561395e57600080fd5b8386111561396b57600080fd5b5050820193919092039150565b80356020831015610982577fffffffffffffffffffffffffffffffffffffffffffffffffffffffffffffffff602084900360031b1b1692915050565b6000826139ea577f4e487b7100000000000000000000000000000000000000000000000000000000600052601260045260246000fd5b500490565b601f8211156111be576000816000526020600020601f850160051c81016020861015613a185750805b601f850160051c820191505b8181101561157b57828155600101613a24565b815167ffffffffffffffff811115613a5157613a51613477565b613a6581613a5f84546136be565b846139ef565b602080601f831160018114613ab85760008415613a825750858301515b7fffffffffffffffffffffffffffffffffffffffffffffffffffffffffffffffff600386901b1c1916600185901b17855561157b565b6000858152602081207fffffffffffffffffffffffffffffffffffffffffffffffffffffffffffffffe08616915b82811015613b0557888601518255948401946001909101908401613ae6565b5085821015613b4157878501517fffffffffffffffffffffffffffffffffffffffffffffffffffffffffffffffff600388901b60f8161c191681555b5050505050600190811b01905550565b7fffff0000000000000000000000000000000000000000000000000000000000008660f01b1681528460028201528360228201527fffffffffffffffffffffffffffffffffffffffff0000000000000000000000008360601b16604282015260008251613bc581605685016020870161305c565b919091016056019695505050505050565b7f4e487b7100000000000000000000000000000000000000000000000000000000600052603160045260246000fdfea264697066735822122073b607b9ecb7c511d5cfb426e625a58ca1455a8995d411c92c21e2c532e9a41964736f6c63430008160033",
  "linkReferences": {},
  "deployedLinkReferences": {}
}